:020000040800F2
:10000000882000202D280008892800088928000859
:1000100089280008892800088928000800000000B5
:100020000000000000000000000000008928000817
:10003000892800080000000089280008F914000839
:1000400089280008892800088928000889280008CC
:1000500089280008892800088928000889280008BC
:1000600089280008892800088928000889280008AC
:10007000892800088928000889280008892800089C
:10008000892800088928000889280008892800088C
:10009000892800088928000889280008892800087C
:1000A000892800088928000889280008892800086C
:1000B000892800088928000889280008892800085C
:1000C000892800088928000889280008892800084C
:1000D000892800088928000889280008892800083C
:1000E000892800088928000889280008892800082C
:1000F000892800088928000889280008892800081C
:10010000892800088928000889280008892800080B
:100110008928000889280008C52C000889280008BB
:1001200089280008892800088928000889280008EB
:1001300089280008892800088928000889280008DB
:1001400089280008892800088928000875460008C1
:1001500089280008892800088928000889280008BB
:1001600089280008892800088928000889280008AB
:10017000892800088928000889280008892800089B
:10018000892800088928000880B485B000AF78600D
:100190000023FB607B68DB684FF0FF325A607B68AE
:1001A000DB684FF0FF325A61FB7B43F08003FB7347
:1001B0007B7B43F008037B737B68DB68FA689A619A
:1001C00000BF1437BD4680BC7047000080B586B0C4
:1001D00000AF78600023FB7400237B610023FB6089
:1001E000032004F013FA7B68DB681B69FB607B6902
:1001F00001337B617B69184A934201D9002326E0D1
:10020000FB68C3F3C073DBB2002BE9D000237B6132
:10021000FB6843F00103FB607B68DB68FA681A61E6
:100220007B68DB681B69FB607B6901337B617B69F1
:10023000094A934206D8FB68C3F30003DBB2012BE3
:10024000EED000E000BF032004F0E0F9FB7C18468C
:100250001837BD4680BD00BF400D030080B489B093
:1002600000AFF860B96011461A460B46FB711346A1
:10027000BB800023FB76FB68DB78002B22D10023B8
:100280007B610023FB61BB880333002B00DA03335F
:100290009B107B61FB79FA6832339B0013449B68A7
:1002A0003B610023FB6109E0BB681A683B691A6087
:1002B000FB690133FB61BB680433BB60FA697B698E
:1002C0009A42F1D3FB7E18462437BD4680BC704766
:1002D00080B489B000AFF860B9601346FB8000239A
:1002E000FB61FB880333002B00DA03339B10BB61F7
:1002F000FB68D3F8D0307B610023FB6109E07B69A8
:100300001A68BB681A60FB690133FB61BB68043380
:10031000BB60FA69BB699A42F1D3BB6818462437BF
:10032000BD4680BC7047000080B487B000AF7860E5
:100330000B46FB7000233B610023FB737B680022AC
:10034000DA707B6801229A707B6840229A80FB7881
:10035000012B13D14FF0A0433B617B680122DA727D
:100360007B6808221A707B6804225A707B684FF4FD
:10037000A072DA807B6802221A7211E0FB78002BEF
:100380000ED1454B3B617B680022DA727B680C2200
:100390001A707B6806225A707B684FF4A062DA807C
:1003A0003A697B68DA603B6903F500631A467B684B
:1003B0001A6100237B611CE07B695A013B6913448D
:1003C00003F5106319467A687B6904339B00134474
:1003D00099607B695A013B69134403F53063194600
:1003E0007A687B6914339B00134459607B6901333D
:1003F0007B617B685B781A467B699342DCD33B69FF
:1004000003F580631A467B685A613B6903F588638C
:100410001A467B68C3F8CC2000237B610FE07B6920
:100420005A013B69134403F5A06319467A687B6956
:1004300022339B00134499607B6901337B617B68A5
:100440001B781A467B699342E9D300237B610FE056
:100450007B691A033B69134403F5805319467A6894
:100460007B6932339B00134499607B6901337B6164
:100470007B681B781A467B699342E9D33B6903F595
:1004800060631A467B68C3F80C21FB7B18461C3757
:10049000BD4680BC704700BF0000044080B588B0F6
:1004A00000AF78600023FB770023BB6100237B61F2
:1004B0000023FB607B681B7A012B4ED17B68DB68D5
:1004C0009B6B7B61BB7D6FF30003BB757B685B7AC5
:1004D000002B03D0BB7D43F01003BB757B68DB684A
:1004E0007A699A630023BB617B68DB68DB68BB6168
:1004F0003B7E6FF386133B76BB7E6FF38613BB7632
:100500003B7E43F010033B763B7E6FF3C3033B76A9
:100510003B7E6FF3C7133B76BB7E6FF34103BB7625
:10052000BB7E6FF3C303BB767B68DB68BA69DA60B6
:100530007868FFF74BFE7B68DB78012B7DD13B7B36
:10054000052262F344033B733B7B43F020033B7380
:100550007B68DB68FA689A606FE07B68DB68DB6861
:10056000BB613B7E43F040033B767B68DB68BA6946
:10057000DA607868FFF72AFE00237B61BB7D43F0D9
:100580000103BB757B681B7A032B03D1BB7D43F052
:100590000203BB75BB7D43F00403BB75BB7D43F019
:1005A0000803BB757B685B7A002B03D0BB7D43F0EF
:1005B0001003BB757B68DB687A699A63142004F0CA
:1005C00049F87B68DB68DB68BB617B681B7A032BBF
:1005D00003D1BB7E43F00103BB767B68DB68BA695D
:1005E000DA607B681B7A032B27D17B68DB681B6B87
:1005F0003B61FB7C012262F38303FB74BB7C6FF3E2
:10060000C713BB74FB7C43F01003FB74BB7C2D222F
:1006100062F30603BB747B68DB683A691A63C8201F
:1006200004F018F8BB7C43F08003BB747B68DB6884
:100630003A691A63C82004F00DF87B68DB78012B57
:1006400010D17B68DB689B68FB603B7B052262F313
:1006500044033B733B7B43F020033B737B68DB68C5
:10066000FA689A60FB7F18462037BD4680BD80B48B
:1006700085B000AF78600023FB730023BB603B7A3A
:1006800043F001033B727B68DB689968BA687B685A
:10069000DB680A439A60FB7B18461437BD4680BC72
:1006A000704780B485B000AF78600023FB730023EF
:1006B000BB603B7A43F001033B727B68DB6899685F
:1006C000BB68DA437B68DB680A409A60FB7B1846AC
:1006D0001437BD4680BC704780B586B000AF7860E7
:1006E00039600023FB7400237B610023FB60FB68FF
:1006F00043F02003FB603B6803F01F03DAB2FB68A2
:1007000062F38A13FB607B68DB68FA681A617B68B6
:10071000DB681B69FB607B6901337B617B69094A8C
:10072000934206D8FB68C3F34013DBB2012BEED033
:1007300000E000BF032003F069FFFB7C1846183778
:10074000BD4680BD400D030080B586B000AF786027
:100750000023FB7400237B610023FB60FB6843F0F4
:100760001003FB607B68DB68FA681A617B68DB68F2
:100770001B69FB607B6901337B617B69094A93429A
:1007800006D8FB68C3F30013DBB2012BEED000E008
:1007900000BF032003F03AFFFB7C18461837BD4624
:1007A00080BD00BF400D030080B584B000AF78600D
:1007B0000B46FB700023FB737B68DB68DB68BB6068
:1007C000FB7A6FF34513FB72FB7A6FF38613FB72B0
:1007D000FB78012B04D1FB7A43F02003FB7206E087
:1007E000FB78002B03D1FB7A43F04003FB727B685C
:1007F000DB68BA68DA60322003F02CFFFB7B184616
:100800001037BD4680BD80B483B000AF78607B6890
:10081000DB685B6903F0010318460C37BD4680BCFA
:10082000704780B582B000AF78607868FFF7EBFF63
:100830000346012B14BF01230023DBB218460837FF
:10084000BD4680BD80B485B000AF78600023FB60FA
:100850007B68DB685B69FB607B68DB689B69FA68C7
:100860001340FB60FB6818461437BD4680BC7047D8
:1008700080B485B000AF78600B46FB707B681B6965
:100880001B68FB60FB7803F00303DAB23B7B62F387
:1008900001033B737B681B69FA681A6000BF143759
:1008A000BD4680BC704780B58CB000AF7860002337
:1008B00087F82B3000237B6200233B620023FB611F
:1008C0000023BB6100237B617B68D3F80C310022DD
:1008D0001A607B681B691B683B6297F821306FF3D5
:1008E000C40387F821307B681B693A6A1A607B6809
:1008F000DB7A012B33D103217868FFF7B9FF7B68DE
:10090000DB6880225A622023FB838023BB837B68C1
:10091000DB68FA699A62BA8BFB8B13449BB23B8308
:1009200080237B837B68DB68BA69C3F804213A8B38
:100930007B8B13449BB23B8320237B837B68DB68E8
:10094000BA69C3F808213A8B7B8B13449BB23B8373
:1009500000237B837B68DB68BA69C3F80C21102114
:100960007868FFF7B9FE7868FFF7EEFE7B681B69D1
:1009700000221A617B681B6900225A617B681B692F
:100980004FF0FF329A617B681B690022DA61002315
:10099000FB623AE07A68FB6A04339B0013449B686D
:1009A0001B687B6297F8273023F07F03DBB2002BB4
:1009B0000ED000237B6297F8273043F0400387F87E
:1009C000273097F8273043F0080387F8273001E0F5
:1009D00000237B627A68FB6A04339B0013449B68A4
:1009E0007A6A1A607A68FB6A04339B0013449B6836
:1009F00000221A617A68FB6A04339B0013449B68E7
:100A0000FF229A60FB6A0133FB627B685B781A46BF
:100A1000FB6A9342BED30023FB6235E07A68FB6A2F
:100A200014339B0013445B681B68FB60FB7B23F063
:100A30007F03DBB2002B0AD00023FB60FB7B43F07B
:100A40004003FB73FB7B43F00803FB7301E00023CF
:100A5000FB607A68FB6A14339B0013445B68FA6896
:100A60001A607A68FB6A14339B0013445B680022A7
:100A70001A617A68FB6A14339B0013445B68FF2297
:100A80009A60FB6A0133FB627B685B781A46FB6AFB
:100A90009342C3D300237B617B7D43F001037B75CD
:100AA0007B681B691A697B69DB4302EA03017A6987
:100AB0007B681B690A431A617B68DB78012B1BD1B9
:100AC00000233B613B7C43F001033B743B7C43F0E0
:100AD00002033B743B8A402262F38A033B82BB7C65
:100AE00043F00103BB747B8A402262F349037B829B
:100AF0007B681B693A691A63786800F006F897F812
:100B00002B3018463037BD4680BD80B584B000AF6D
:100B100078600023FB730023BB607B68DB680022E6
:100B20009A617B68DB684FF0FF325A617868FFF7A3
:100B30002BFB7B68DB78002B03D13B7A43F010035F
:100B40003B727B7A43F008037B727B7A43F010039D
:100B50007B727B7A43F020037B72BB7A43F0040301
:100B6000BB72BB7A43F00803BB723B7A43F00803C5
:100B70003B72BB7A43F01003BB72BB7A43F0200395
:100B8000BB72FB7A43F04003FB723B7A43F00403F1
:100B90003B727B68DB689A69BB68DB4302EA03014E
:100BA000BA687B68DB680A439A61FB7B184610379A
:100BB000BD4680BD80B485B000AF78600023FB7374
:100BC0007B681B699B68BB603B7AC3F34103DBB264
:100BD000032B08D0032B03DC012B04D0022B05D000
:100BE0000323FB7305E00223FB7302E00123FB7385
:100BF00000BFFB7B18461437BD4680BC704780B4ED
:100C000087B000AF78600023FB750023BB607B6872
:100C10001B699B683B617B689B691B68FB603B7C35
:100C2000C3F34103DBB2022B04D0BB896FF30A0389
:100C3000BB8105E0BB89032262F30A03BB8100BFCD
:100C40007B689B69FA681A607B7A43F001037B72C8
:100C50007B681B695A68BB68DB4302EA0301BA6818
:100C60007B681B690A435A60FB7D18461C37BD46EA
:100C700080BC704780B487B000AF786039600023D3
:100C8000FB740023FB600023BB603B685B78012B97
:100C90000FD13B681B787A6804339B0013449B6830
:100CA0007B613B681B781A46012393409BB23B81D2
:100CB0000EE03B681B787A6814339B0013445B6832
:100CC0007B613B681B781A46012393409BB27B8172
:100CD0007B691B68FB607B7B23F07F03DBB2002B0F
:100CE00025D13B689B68C3F30A039AB2BB8962F3C0
:100CF0000A03BB813B68DB7803F00303DAB2BB7BFA
:100D000062F38303BB733B68DB8803F00F03DAB243
:100D1000FB8962F38913FB81FB7B43F01003FB73B8
:100D20007B7B43F080037B73FA687B691A607B6886
:100D30001B69D969BA687B681B690A43DA61FB7C65
:100D400018461C37BD4680BC704780B487B000AFE2
:100D5000786039600023FB740023FB600023BB60D4
:100D60003B685B78012B0FD13B681B787A680433B2
:100D70009B0013449B687B613B681B781A460123E8
:100D800093409BB23B810EE03B681B787A6814333A
:100D90009B0013445B687B613B681B781A46012308
:100DA00093409BB27B817B7B6FF3C7137B73FA68A5
:100DB0007B691A607B681B69D969BB68DA437B6809
:100DC0001B690A40DA61FB7C18461C37BD4680BCB3
:100DD000704780B588B000AF786039600023FB773A
:100DE0000023BB6100237B6100233B613B685B7890
:100DF000012B40F0AA803B681B787A6804339B0083
:100E000013449B681B687B613B681B787A680433DA
:100E10009B0013449B681B693B613B685B69002B2B
:100E200009D13B696FF312033B617B8A012262F3B4
:100E3000CC037B8221E03B685B69C3F312023B6910
:100E400062F312033B613B685A693B689B68134439
:100E50005A1E3B689B68B2FBF3F3C3F309039AB2D3
:100E60007B8A62F3CC037B823B68DB78012B04D165
:100E7000FB7C012262F34613FB743B681B787A68A3
:100E800004339B0013449B683A691A617B68DB78E2
:100E9000012B0AD13B681B787A6804339B0013440A
:100EA0009B683A6812695A6115E03B68DB78012B50
:100EB00011D03B685B69002B0DD03B681B781A464C
:100EC00001239340BB617B681B69596B7B681B697D
:100ED000BA690A435A633B68DB78012B14D17B68FB
:100EE0001B699B68FB60FB68C3F30D239BB203F097
:100EF0000103002B04D1FB7D43F02003FB7503E0CD
:100F0000FB7D43F01003FB75FB7D43F00403FB7591
:100F1000FB7D43F08003FB753B681B787A680433E4
:100F20009B0013449B687A691A603B68DB78012B4D
:100F300040F08B803B68D9683B681A783B685B69F6
:100F40009BB27868FFF78AF97FE03B681B787A6884
:100F500014339B0013445B681B687B613B681B7800
:100F60007A6814339B0013445B681B693B613B68E0
:100F70005B69002B0DD13B689B68C3F312023B6990
:100F800062F312033B617B8A012262F3CC037B8212
:100F900022E03B685A693B689B6813445A1E3B68D1
:100FA0009B68B2FBF3F3C3F309039AB27B8A62F343
:100FB000CC037B827B8AC3F3C9039BB2C3F31203C6
:100FC0003A689268C2F3120202FB03F2C2F3120201
:100FD0003B6962F312033B613B681B787A68143308
:100FE0009B0013445B683A691A617B68DB78012BCC
:100FF00009D13B681B787A6814339B0013445B6803
:101000003A6812695A613B68DB78012B0CD13B6866
:101010005B79002B04D0FB7D43F02003FB7503E0DC
:10102000FB7D43F01003FB75FB7D43F00403FB7570
:10103000FB7D43F08003FB753B681B787A681433B3
:101040009B0013445B687A691A60FB7F184620375F
:10105000BD4680BD80B489B000AF786039600023A0
:10106000FB770023BB6100233B610023BB603B682F
:101070005B78012B6ED17B689B697B617B691B6808
:101080003B617B691B69BB603B685B69002B09D1D5
:101090003B7A6FF306033B72BB7A012262F3C4030F
:1010A000BB7221E03B685A693B689B689A420DD944
:1010B0003B689A683B685A613B689B6803F07F0312
:1010C000DAB23B7A62F306033B7208E03B685B6985
:1010D00003F07F03DAB23B7A62F306033B72BB7A1A
:1010E000012262F3C403BB72BA687B691A617B6830
:1010F000DB78012B09D13B681B787A6804339B00AD
:1011000013449B683A6812695A61FB7C43F00403FC
:10111000FB74FB7C43F08003FB743A697B691A60C3
:101120007B68DB78002B74D13B685B69002B70D047
:101130003B681B781A46012393401A46BB69134348
:10114000BB617B681B69596B7B681B69BA690A4381
:101150005A635EE03B681B787A6814339B00134443
:101160005B681B683B613B681B787A6814339B00A3
:1011700013445B681B69BB603B685B69002B0ED145
:101180003B689B6803F07F03DAB23B7A62F30603A5
:101190003B72BB7A012262F3C403BB7211E03B686D
:1011A0009A683B685A613B689B6803F07F03DAB238
:1011B0003B7A62F306033B72BB7A012262F3C403FB
:1011C000BB723B681B787A6814339B0013445B68DE
:1011D000BA681A617B68DB78012B09D13B681B7800
:1011E0007A6814339B0013445B683A6812695A6149
:1011F000FB7C43F00403FB74FB7C43F08003FB7433
:101200003B681B787A6814339B0013445B683A6927
:101210001A60FB7F18462437BD4680BC704780B4F7
:1012200087B000AF786039600023FB750023FB6056
:101230003B685B78012B1CD13B681B787A680433D0
:101240009B0013449B683B613B691B68FB60FB7B15
:1012500023F07F03DBB2002B03D0FB7B43F0400382
:10126000FB73BB7B43F02003BB73FA683B691A60D6
:1012700011E03B681B787A6814339B0013445B6869
:101280003B613B691B68FB60BB7B43F02003BB7386
:10129000FA683B691A60FB7D18461C37BD4680BC66
:1012A000704780B487B000AF786039600023FB746A
:1012B0000023FB603B685B78012B08D13B681B78FF
:1012C0007A6804339B0013449B687B6107E03B68AA
:1012D0001B787A6814339B0013445B687B617B69DD
:1012E0001B68FB60BB7B6FF34513BB733B68DB780C
:1012F000032B03D03B68DB78022B03D1FB7B43F04D
:101300001003FB73FA687B691A60FB7C18461C3774
:10131000BD4680BC704780B485B000AF78607B6804
:101320001B699B69FB607B681B69DB69FA6813407A
:10133000FB60FB681B0C18461437BD4680BC704729
:1013400080B485B000AF78600B46FB70FB787A689C
:1013500014339B0013445B689B68FB607B681B69CC
:101360005B69FA681340FB60FB6818461437BD469A
:1013700080BC704780B485B000AF78607B681B6923
:101380009B69FB607B681B69DB69FA681340FB6043
:10139000FB689BB218461437BD4680BC704780B4CA
:1013A00087B000AF786000233B61FB7C43F0C00353
:1013B000FB74BB7C012262F3C403BB743B7C182228
:1013C00062F306033B747B685B6D3A691A617B6864
:1013D000DB78012B16D10023FB607B6803F5B96233
:1013E0007B685B6D5A617B685B6D1B68FB60FB7B98
:1013F00043F08003FB734FF08023FB607B685B6DE1
:10140000FA681A6000BF1C37BD4680BC70470000F8
:1014100080B483B000AF03463960FB7197F90730A1
:10142000002B0BDA3B68DAB20C49FB7903F00F03AF
:10143000043B1201D2B20B441A7609E03B68DAB2DF
:10144000074997F907301201D2B20B4483F8002301
:1014500000BF0C37BD4680BC704700BF00ED00E008
:1014600000E100E080B582B000AF78607B68B3F146
:10147000807F01D3012311E07B6823F07F43094A79
:10148000013B53600F214FF0FF30FFF7C1FF054BC9
:1014900000229A60034B07221A600023184608377F
:1014A000BD4680BD10E000E080B582B000AF78603E
:1014B00002F048FF054B1A687B68B2FBF3F318464D
:1014C000FFF7D0FF00BF0837BD4680BDB800002041
:1014D00080B483B000AF7860064A7B68136000BFB9
:1014E000044B1B68002BFBD100BF00BF0C37BD466F
:1014F00080BC7047C001002080B400AF044B1B6863
:10150000013B034A136000BFBD4680BC704700BF6B
:10151000C001002080B582B002AF074B01221A70D3
:10152000064B0093064B074A0121074801F0AFF92B
:1015300000BFBD4680BD00BFC401002000000020E8
:10154000140100205C000020C801002080B400AF1E
:10155000024B1B781846BD4680BC7047C401002072
:1015600080B584B000AF7860104B1B78022B01D09F
:10157000002316E0786802F047FE0346BB81BB8972
:10158000002B0DD10023FB7305E07B6800221A704D
:10159000FB7B0133FB73FB7B272BF6D9012300E098
:1015A000022318461037BD4680BD00BFC40100208D
:1015B00080B400AF0B4B5B690A4A23F47C6323F0D1
:1015C0000C035361084B5B69074A23F0070353611F
:1015D000064B5B69054A23F00803536100BFBD4613
:1015E00080BC7047001C0240000802400018024006
:1015F00080B500AF6F49704805F066F90346002BCF
:1016000009D1FFF7D5FF6D4B5B696C4A43F48073DA
:1016100053610123CBE06A49674805F055F9034659
:10162000002B09D1FFF7C4FF644B5B69634A43F0A9
:10163000800353610223BAE062495F4805F044F930
:101640000346002B09D1FFF7B3FF5C4B5B695B4A94
:1016500043F0400353610323A9E05B49564805F07A
:1016600033F90346002B09D1FFF7A2FF534B5B6907
:10167000524A43F400735361042398E053494E489F
:1016800005F022F90346002B09D1FFF791FF4B4BE0
:101690005B694A4A43F480635361052387E04C4900
:1016A000454805F011F90346002B09D1FFF780FFEB
:1016B000424B5B69414A43F008035361062376E0DD
:1016C00044493D4805F000F90346002B09D1FFF7D6
:1016D0006FFF414B5B69404A43F0040353610723AA
:1016E00065E03E49344805F0EFF80346002B33D15E
:1016F000FFF75EFF3A4B5B69394A43F004035361DD
:101700004FF4FA60FFF7E4FE354B5B69344A23F08F
:1017100004035361324B5B69314A43F00203536166
:101720004FF4FA60FFF7D4FE2D4B5B692C4A23F08F
:10173000020353612A4B5B69294A43F00103536159
:101740004FF4FA60FFF7C4FE254B5B69244A23F08F
:101750000103536108232AE02249174805F0B4F831
:101760000346002B09D1FFF723FF144B5B69134A93
:1017700043F400635361092319E01B490E4805F047
:10178000A3F80346002B09D1FFF712FF124B5B6948
:10179000114A43F0080353610A2308E0FFF708FFEA
:1017A0000D4B5B690C4A23F0040353610023184678
:1017B00080BD00BFC4710008B8070020001C0240B3
:1017C000CC710008D4710008DC710008E4710008D5
:1017D000F07100080072000800180240087200084A
:1017E00000080240147200082072000880B400AFA4
:1017F000034B01221A7000BFBD4680BC704700BF7A
:10180000C401002080B483B000AF0346FB71044BD9
:1018100001221A7000BF0C37BD4680BC704700BF64
:10182000C401002080B400AF034B02221A7000BF35
:10183000BD4680BC704700BFC401002080B400AF2B
:10184000034B01221A7000BFBD4680BC704700BF29
:10185000C401002080B400AF034B01221A7000BF06
:10186000BD4680BC704700BFC401002080B400AFFB
:10187000034B01221A7000BFBD4680BC704700BFF9
:10188000C401002080B400AF034B01221A7000BFD6
:10189000BD4680BC704700BFC401002080B483B047
:1018A00000AF0346FB71FB7903F01F03012202FA2C
:1018B00003F1054A97F907305B0942F8231000BF8E
:1018C0000C37BD4680BC704700E100E080B483B0B7
:1018D00000AF0346FB71FB7903F01F03012202FAFC
:1018E00003F1064A97F907305B09203342F82310C9
:1018F00000BF0C37BD4680BC704700BF00E100E070
:1019000080B400AF0D4B00221A700BE00B4B1B781C
:101910001A460B4B00219954084B1B780133DAB25D
:10192000064B1A70054B1B784F2BEFD9034B002247
:101930001A7000BFBD4680BC704700BF290C002054
:101940004001002080B500AF00F03EF800F01AF82A
:1019500000F05EF800F07EF800F0B0F800F0D2F889
:1019600000F010F900F04EF900F0C6F900F0E8F9C7
:1019700000F01CFA00F094FA00F050FC00F0A2FC19
:1019800000BF80BD80B582B000AF0121102002F001
:10199000B7F804233B6001233B7103237B710023D1
:1019A000BB710223FB713B461946064802F01CFA44
:1019B000044B5B69034A23F00403536100BF0837FB
:1019C000BD4680BD0010024080B582B000AF01214D
:1019D000202002F095F84FF4C0533B6001233B7187
:1019E00003237B710023BB710223FB713B46194625
:1019F000064802F0F9F9054B5B69044A23F4C05329
:101A0000536100BF0837BD4680BD00BF00140240CF
:101A100080B582B000AF0121082002F071F80123E7
:101A20003B6001233B7103237B710023BB710223C5
:101A3000FB713B461946064802F0D6F9044B5B6938
:101A4000034A23F00103536100BF0837BD4680BD40
:101A5000000C024080B584B000AF0121102002F0DC
:101A60004FF84FF68073BB6000233B7303237B73F7
:101A70000023BB730023FB7307F1080319460D48CD
:101A800002F0B2F90121022002F03AF84FF470435B
:101A90003B6000233B7103237B710023BB71002358
:101AA000FB713B461946044802F09EF900BF10370F
:101AB000BD4680BD001002400004024080B582B0E7
:101AC00000AF0121082002F01BF84FF4FC433B60FB
:101AD00001233B7103237B710023BB710223FB7144
:101AE0003B461946064802F07FF9054B5B69044AFC
:101AF00023F4FC43536100BF0837BD4680BD00BFDF
:101B0000000C024080B584B000AF0121082001F034
:101B1000F7FFFE23BB6001233B7303237B7300238A
:101B2000BB730223FB7307F108031946134802F045
:101B30005BF9124B5B69114A23F0FE0353610121EB
:101B4000402001F0DDFF4FF460633B6001233B71F7
:101B500003237B710023BB710223FB713B461946B3
:101B6000074802F041F9064B5B69054A23F46063BC
:101B7000536100BF1037BD4680BD00BF000C02405E
:101B80000018024080B584B000AF0121402001F070
:101B9000B7FF4FF47043BB6001233B7303237B7398
:101BA0000023BB730223FB7307F108031946134894
:101BB00002F01AF9114B5B69104A23F47043536128
:101BC0000121022001F09CFF08233B6001233B71AF
:101BD00003237B710023BB710223FB713B46194633
:101BE000074802F001F9064B5B69054A23F0080338
:101BF000536100BF1037BD4680BD00BF00180240D2
:101C00000004024080B588B000AF0121802001F0BF
:101C100077FF40F6CC73BB6101233B7703237B77CF
:101C20000023BB770223FB7707F1180319462E48E0
:101C300002F0DAF82C4B5B692B4A23F47C6323F027
:101C40000C0353610121042001F05AFF07233B617B
:101C500001233B7503237B750023BB750223FB75B2
:101C600007F110031946214802F0BEF81F4B5B69CB
:101C70001E4A23F0070353610121022001F040FFB7
:101C80004FF48063BB6001233B7303237B7300230A
:101C9000BB730223FB7307F108031946144802F0D3
:101CA000A3F8134B5B69124A23F48063536101214B
:101CB000402001F025FF0C233B6001233B710323EF
:101CC0007B710023BB710223FB713B461946094817
:101CD00002F08AF8074B5B69064A23F00C03536154
:101CE00000BF2037BD4680BD001C024000080240F6
:101CF000000402400018024080B582B000AF01210C
:101D0000022001F0FDFE4FF482633B6001233B7132
:101D100003237B710023BB710223FB713B461946F1
:101D2000064802F061F8054B5B69044A23F48263BC
:101D3000536100BF0837BD4680BD00BF00040240AC
:101D400080B584B000AF01214FF4807001F0D8FE5F
:101D50004FF47063BB6000233B7303237B7300234A
:101D6000BB730223FB7307F1080319460D4802F009
:101D70003BF80121042001F0C3FE46F238033B602A
:101D800000233B7103237B710023BB710223FB7192
:101D90003B461946044802F027F800BF1037BD46FD
:101DA00080BD00BF002002400008024080B588B01E
:101DB00000AF0121802001F0A3FE3023BB6101238D
:101DC0003B7703237B770023BB770223FB7707F165
:101DD00018031946284802F007F8274B5B69264A82
:101DE00023F0300353610121402001F089FE4FF4BC
:101DF000D0733B6101233B7503237B750023BB75C7
:101E00000223FB7507F1100319461C4801F0ECFF93
:101E10001A4B5B69194A23F4D073536101212020C6
:101E200001F06EFE4923BB6001233B7303237B73E8
:101E30000023BB730223FB7307F108031946104804
:101E400001F0D2FF0E4B5B690D4A23F04903536149
:101E50004FF4DB733B6000233B7103237B71002352
:101E6000BB710023FB713B461946054801F0BCFFDE
:101E700000BF2037BD4680BD001C02400018024054
:101E80000014024080B400AF044B5B69034A43F086
:101E90004903536100BFBD4680BC70470014024037
:101EA00080B584B000AF0121202001F029FE4FF45D
:101EB0000053BB6001233B7303237B730023BB737D
:101EC0000223FB7307F108031946134801F08CFF46
:101ED000114B5B69104A23F40053536101218020A8
:101EE00001F00EFE08233B6001233B7103237B714D
:101EF0000023BB710223FB713B461946074801F0E2
:101F000073FF064B5B69054A23F00803536100BF6A
:101F10001037BD4680BD00BF00140240001C0240C7
:101F200080B582B000AF0023FB71374800F062FA41
:101F300000F0EAF9354B05221A70FFF7E1FC344B4B
:101F40001B889BB203F02003202B2AD1314B0122A6
:101F50001A702F4B9B889BB2DAB22F4B1A702F4B03
:101F60001B781A462C4B19782D4B99542B4B1B7808
:101F7000002B10D0294B1B78013B294AD35C0D2B39
:101F800009D1264B1B781A46254B9B5C0A2B02D1A4
:101F90000123FB7109E0214B1B780133DAB21F4B9F
:101FA0001A701A4B1B78002BC9D100F0BBF9FB79D2
:101FB000002B21D013211B4802F088F9FFF7A0FC69
:101FC0004FF47A70FFF784FA174800F013FA00F024
:101FD000CFF91649124804F077FC0346002B04D1D0
:101FE0001721134802F072F903E01B21114802F097
:101FF0006DF9FFF785FC03E011210F4802F066F947
:1020000000BF0837BD4680BD38720008E4090020D3
:102010000014014090010020280C0020290C002011
:1020200040010020407200085472000860720008ED
:102030006C72000884720008A072000880B582B03B
:1020400000AF0023FB71FFF75BFC00F091F9124930
:10205000124804F039FC0346002B07D1FFF750FC6F
:102060000123FB710E4B00221A7010E00C4B1B7801
:10207000002B0CD00B49094804F0EAFE0346002B64
:1020800005D0094B1B781946044802F01FF9FB796B
:1020900018460837BD4680BDB472000840010020D4
:1020A00090010020BC720008290C002080B584B08B
:1020B00000AF524B5B69514A23F008035361504A09
:1020C0003B4607CA03C31A800123FB730023BB737B
:1020D00009E0BB7B07F1100213444E2203F8102CD9
:1020E000BB7B0133BB73BB7B092BF2D900F00CF92E
:1020F000444B0F221A7057E0434B1B6903F4005303
:10210000002B01D059233B703F4B1B6903F48053D4
:10211000002B01D059237B703B4B1B6903F40063F8
:10212000002B01D05923BB70374B1B6903F480632C
:10213000002B01D05923FB70334B1B6903F4007350
:10214000002B01D059233B71304B1B6903F48043B2
:10215000002B01D059237B712C4B1B6903F40053D6
:10216000002B01D05923BB71274B1B6903F480431B
:10217000002B01D05923FB71FB7B002B09D0234B93
:102180001B6903F40043002B03D059233B72002347
:10219000FB73FB7B002B07D11C4B1B6903F4004333
:1021A000002B01D159237B72164B1B78002BA3D136
:1021B00000F0B8F80A21164802F088F800237B7373
:1021C00013E00121134802F081F87B7B07F1100234
:1021D000134413F8103C184602F06AF802210E4826
:1021E00002F074F87B7B01337B737B7B092BE8D98E
:1021F00000BF00BF1037BD4680BD00BF001C0240BD
:10220000E8720008E40900200010024000040240C7
:10221000D4720008E0720008E472000880B586B04D
:1022200000AF0121202001F0C5FC0121042001F0B4
:1022300067FC40233B6102233B7503237B7500232E
:10224000BB750123FB7507F1100319461B4801F00C
:10225000CBFD80233B6102233B7503237B75002369
:10226000BB750123FB7507F110031946134801F0F4
:10227000BBFD08220621114801F044FE0822072177
:102280000E4801F03FFE4FF416533B600023BB8025
:102290000023FB8000233B810023BB810C237B8137
:1022A0003B461946064800F0E7F90121044800F0D2
:1022B0009DFA00BF1837BD4680BD00BF0008024030
:1022C0000014014080B584B000AF0121102001F05E
:1022D00053FC3B1D184604F0EBF94AF20F43BB8058
:1022E0004FF4FA63BB603B1D1946064804F076F9CB
:1022F00001220121034804F013FA00BF1037BD4644
:1023000080BD00BF0010004080B500AF012104482F
:1023100004F0E7F93620FFF7C1FA00BF80BD00BF27
:102320000010004080B500AF0021044804F0D9F946
:102330003620FFF7CBFA00BF80BD00BF0010004081
:1023400080B483B000AF0346FB7100BF074B1B880E
:102350009BB203F04003002BF8D0044BFA7992B201
:102360009A8000BF0C37BD4680BC70470014014006
:1023700080B500AFFFF7C4FA194B1B889BB203F07E
:102380002003202BF8D1174B01221A70144B9B8885
:102390009BB2DAB2144B1A70144B1B781A46124BCC
:1023A0001978134B9954114B1B78002B0DD00F4B00
:1023B0001B78013B0E4AD35C0D2B06D10B4B1B78CF
:1023C0001A460B4B9B5C0A2B06D0084B1B7801333B
:1023D000DAB2064B1A70CFE700BF00BF80BD00BF66
:1023E0000014014090010020280C0020290C00203E
:1023F0004001002080B584B000AF78600023FB73FB
:1024000009E0FB7B7A6813441B781846FFF798FFB6
:10241000FB7B0133FB73FB7B7A6813441B78002B37
:10242000EFD100BF00BF1037BD4680BD80B400AF04
:102430000A4B5B69094A23F010035361084B5B693F
:10244000074A23F0A0035361064B5B69054A23F05A
:102450004903536100BFBD4680BC7047001C024069
:10246000001802400014024080B500AF7349744860
:1024700004F02AFA0346002B09D1FFF7D7FF714B6E
:102480005B69704A43F0200353610123D4E06E4935
:102490006B4804F019FA0346002B09D1FFF7C6FF79
:1024A0006A4B5B69694A43F0100353610323C3E03D
:1024B0006749634804F008FA0346002B4DD1FFF743
:1024C000B5FFFFF7DFFCFA20FFF702F8614B1B694D
:1024D00003F00203002B0AD05E4B1B6903F00403D8
:1024E000012B08D00A215C4801F0F0FE03E00A212C
:1024F0005A4801F0EBFE3220FEF7EAFF554B1B690C
:1025000003F01003002B0AD0524B1B6903F0200389
:10251000012B08D00A21524801F0D8FE03E00A211D
:10252000504801F0D3FE3220FEF7D2FF494B1B6921
:1025300003F08003002B0AD0464B1B6903F4807321
:10254000012B08D00C21484801F0C0FE03E00C210B
:10255000464801F0BBFE04236EE04549384804F0CC
:10256000B3F90346002B4DD1FFF760FFFFF78AFC5C
:10257000FA20FEF7ADFF374B1B6903F00403002B75
:102580000AD0344B1B6903F00203012B08D00A2147
:10259000314801F09BFE03E00A21304801F096FE2D
:1025A0003220FEF795FF2B4B1B6903F02003002B15
:1025B0000AD0284B1B6903F01003012B08D00A2115
:1025C000274801F083FE03E00A21264801F07EFE41
:1025D0003220FEF77DFF1F4B1B6903F48073002B35
:1025E0000AD01C4B1B6903F08003012B08D00C217F
:1025F0001D4801F06BFE03E00C211C4801F066FE53
:10260000052319E01B490E4804F05EF90346002B30
:1026100009D1FFF70BFF0D4B5B690C4A43F0200318
:102620005361062308E0FFF701FF084B5B69074A87
:1026300023F0200353610023184680BDF472000884
:10264000B807002000180240FC720008001C02407D
:102650000473000800140240107300081C73000883
:102660002873000834730008407300085073000892
:10267000607300086C73000880B58AB000AF7860A2
:10268000396000237B6200233B620023FB6100234F
:10269000BB617B681B8A9BB27B627B6A23F44053DD
:1026A0007B623B68DB881A467B6A13437B627B6AEA
:1026B0009AB27B681A827B689B899BB27B627B6A39
:1026C00023F4B05323F00C037B623B689A883B6889
:1026D0001B8913439AB23B685B8913439BB21A462A
:1026E0007B6A13437B627B6A9AB27B689A817B68C0
:1026F0009B8A9BB27B627B6A23F440737B623B685C
:102700009B891A467B6A13437B627B6A9AB27B6819
:102710009A8207F10803184601F044F97B68304AB1
:10272000934203D07B682F4A934202D17B693B627C
:1027300001E03B693B627B689B899BB21BB2002B2B
:102740000CDA3A6A13469B0013449A001A443B6819
:102750001B685B00B2FBF3F3FB610BE03A6A1346C4
:102760009B0013449A001A443B681B689B00B2FB11
:10277000F3F3FB61FB691C4AA2FB03235B091B010A
:102780007B627B6A1B09642202FB03F3FA69D31A9A
:10279000BB617B689B899BB21BB2002B0CDABB69C7
:1027A000DB003233104AA2FB03235B0903F007036B
:1027B0007A6A13437B620BE0BB691B0132330A4A1E
:1027C000A2FB03235B0903F00F037A6A13437B62C6
:1027D0007B6A9AB27B681A8100BF2837BD4680BDEC
:1027E00000100140001401401F85EB5180B483B0FC
:1027F00000AF78600B46FB70FB78002B08D07B683D
:102800009B899BB243F400539AB27B689A8107E09C
:102810007B689B899BB223F400539AB27B689A81B0
:1028200000BF0C37BD4680BC7047000080B582B049
:1028300000AF104B7B60104B3B6007E07A68131DC4
:102840007B603B68191D396012681A603B680B4A4F
:102850009342F3D30A480B494FF000028842B8BFB5
:1028600040F8042BFADB00F047FA00BF0837BD46FA
:1028700080BD00BFD277000800000020400100208A
:10288000400100208818002080B400AFFEE780B52A
:1028900084B000AFF8607A603B600B46FB72F8686A
:1028A00001F04AFEF86800F01DF8FB683A68C3F8CA
:1028B000E025FB68BA69C3F8E425FB687A68C3F8C9
:1028C000E825FB7A1946F86803F0D0FBFB68D3F8DB
:1028D000E4351B689847F86801F07EFE00BF1037AA
:1028E000BD4680BD80B483B000AF78600023184639
:1028F0000C37BD4680BC704780B584B000AF7860AF
:1029000007F108031946786802F094FA3B7A03F05D
:102910001F03022B14D0022B19DC002B02D0012B39
:1029200007D014E007F108031946786801F0ACFEFF
:1029300016E007F108031946786801F0F5FE0FE08C
:1029400007F108031946786801F022FF08E03B7A96
:1029500023F07F03DBB21946786803F014FD00BF53
:10296000002318461037BD4680BD80B584B000AF47
:1029700078600B46FB70FB78002B44D17B6803F535
:102980005C73FB607B6893F81131032B4ED1FB68BD
:10299000DA69FB689B689A4220D9FB68DA69FB68B0
:1029A0009B68D21AFB68DA617B68DB78012B06D161
:1029B000FB68DA68FB689B681A44FB68DA60FB68AE
:1029C000D968FB689A68FB68DB69934228BF1346A5
:1029D0009BB21A46786803F0BDFD27E07B68D3F808
:1029E000E0351B69002B0AD07B6893F81231032B6A
:1029F00005D17B68D3F8E0351B697868984778681B
:102A000003F0BCFD12E07B68D3F8E0359B69002B36
:102A10000CD07B6893F81231032B07D17B68D3F875
:102A2000E0359B69FA781146786898470023184684
:102A30001037BD4680BD80B584B000AF78600B46CE
:102A4000FB70FB78002B5FD17B6803F58C73FB6018
:102A50007B6893F81131022B69D1FB68DA69FB6856
:102A60009B689A421BD9FB68DA69FB689B68D21A9B
:102A7000FB68DA617B68DB78012B06D1FB68DA68DA
:102A8000FB689B681A44FB68DA60FB68D968FB68DE
:102A9000DB699BB21A46786803F028FD47E0FB68C3
:102AA0001B6AFA689268B3FBF2F102FB01F29B1A0F
:102AB000002B14D1FB681A6AFB689B689A420ED3FC
:102AC000FB681A6AFB685B6A9A4208D200220021FE
:102AD000786803F00BFDFB6800225A6227E07B68F0
:102AE000D3F8E035DB68002B0AD07B6893F812310D
:102AF000032B05D17B68D3F8E035DB68786898470D
:102B0000786803F053FD12E07B68D3F8E0355B6929
:102B1000002B0CD07B6893F81231032B07D17B6814
:102B2000D3F8E0355B69FA78114678689847002356
:102B300018461037BD4680BD80B582B000AF7860C2
:102B4000002340220021786803F011FB002340227B
:102B50008021786803F00BFB7B68012283F8122147
:102B60007B68D3F8E4355B687A68927810469847BA
:102B7000002318460837BD4680BD80B582B000AF3F
:102B800078607B68D3F8E4351B6998477B6803223B
:102B900083F81221002318460837BD4680BD80B552
:102BA00082B000AF78607B68042283F812217B68D2
:102BB000D3F8E435DB689847002318460837BD464C
:102BC00080BD80B582B000AF78607B68D3F8E03517
:102BD000DB69002B05D07B68D3F8E035DB697868CA
:102BE0009847002318460837BD4680BD80B582B09F
:102BF00000AF78600B46FB707B68D3F8E0351B684C
:102C0000FA781146786898477B68D3F8E4359B6872
:102C10009847002318460837BD4680BD80B582B06E
:102C200000AF78600B46FB707B68D3F8E0355B68DB
:102C3000FA78114678689847002318460837BD4649
:102C400080BD80B582B000AF78607B68D3F8E03596
:102C50001B6A78689847002318460837BD4680BD30
:102C600080B582B000AF78607B68D3F8E0355B6AEE
:102C700078689847002318460837BD4680BD80B560
:102C800082B000AF78607B68D3F8E4355B69984721
:102C9000002318460837BD4680BD80B582B000AF1E
:102CA00078607B68D3F8E4359B6998477B68D3F8F4
:102CB000E0355B680021786898470023184608379C
:102CC000BD4680BD80B500AF0121094803F04BFD32
:102CD0000346002B09D0074B1B78013BDAB2054BAA
:102CE0001A700121024803F067FD00BF80BD00BFDC
:102CF00000100040E409002080B500AF914B012294
:102D00001A70914B00221A7001F0EEFAFEF71AFECB
:102D10008E4B5B698D4A43F0010353614FF47A7027
:102D2000FEF7C2FBFEF7F6FBFEF710FC0346022B94
:102D3000FAD18748FEF714FC03461A46814B1A70F5
:102D4000804B1B78022BEFD18249814803F0BCFDF8
:102D50000346002B40F086800C217F4801F0B6FA34
:102D60007E4B5B697D4A43F4006353611420FEF798
:102D7000AFFB7A4B1B6903F40063002B04D00C21DA
:102D8000774801F0A3FA03E00621764801F09EFAA5
:102D9000754B01221A706E48FEF7E2FB03461A4695
:102DA000684B1A70674B1B78022B4AD16F496848F1
:102DB00003F08AFD0346002B18D16D4B5B696C4A0A
:102DC00043F0100353611420FEF782FB684B1B692C
:102DD00003F01003002B04D00F21664801F076FAAF
:102DE0002FE006215F4801F071FA2AE06249584855
:102DF00003F06AFD0346002B18D15D4B5B695C4A0A
:102E000023F0100353611420FEF762FB584B1B693B
:102E100003F01003002B04D11021584801F056FA9A
:102E20000FE006214F4801F051FA0AE000F018FBCC
:102E300003461A464C4B1A704B4B1B78184601F050
:102E400037FA494B1B78002BA5D1444B5B69434AA9
:102E500023F400635361464B5B69454A23F010033A
:102E6000536161E746493A4803F02EFD0346002BC3
:102E700040F090800D21434801F028FA3A4B01229E
:102E80001A703348FEF76CFB03461A462D4B1A7036
:102E90002C4B1B78022B4AD13B492D4803F014FDE3
:102EA0000346002B18D12D4B5B692C4A43F4006379
:102EB00053611420FEF70CFB284B1B6903F40063DD
:102EC000002B04D00C21264801F000FA2FE0062147
:102ED000244801F0FBF92AE02C491D4803F0F4FCDA
:102EE0000346002B18D11D4B5B691C4A23F4006379
:102EF00053611420FEF7ECFA184B1B6903F40063CE
:102F0000012B04D00D21224801F0E0F90FE0062149
:102F1000144801F0DBF90AE0FFF7A6FA03461A4667
:102F2000114B1A70104B1B78184601F0C1F90E4B6B
:102F30001B78002BA5D1094B5B69084A23F4006379
:102F40005361F1E6E0070020E90B0020000C02408D
:102F5000B80700207873000884730008001402404A
:102F600094730008A4730008E80B0020AC730008F9
:102F700000040240BC730008CC730008DC73000836
:102F8000F0730008FC7300080C7400081C7400083F
:102F90002C740008AB49AC4803F096FC0346002BA8
:102FA00040F0D4800C21A94801F090F9A84B0122EF
:102FB0001A70A548FEF7D4FA03461A46A54B1A70B4
:102FC000A44B1B78022B40F09D80A3499E4803F040
:102FD0007BFC0346002B2AD1A04B5B699F4A43F43C
:102FE000006353619D4B5B699C4A43F4805353617A
:102FF0001420FEF76DFA994B1B6903F40063002B54
:103000000ED0964B1B6903F48053002B08D00C2183
:10301000934801F05BF91121924801F057F903E060
:103020000621914801F052F9FFF740F86AE08F4914
:10303000854803F049FC0346002B28D18C4B5B6983
:103040008B4A43F010035361894B5B69884A43F410
:10305000806353611420FEF73BFA854B1B6903F034
:103060001003002B0ED0824B1B6903F48063002BEE
:1030700008D00F217F4801F029F90E217E4801F088
:1030800025F93FE00621784801F020F93AE07B4934
:103090006D4803F019FC0346002B08D1784B5B699F
:1030A000774A43F004035361FEF73AFF2AE075497B
:1030B000654803F009FC0346002B18D1704B5B698F
:1030C0006F4A23F0040353611420FEF701FA6C4B9E
:1030D0001B6903F00403012B04D00E216A4801F0A0
:1030E000F5F80FE00621604801F0F0F80AE000F082
:1030F000ABFD03461A46564B1A70554B1B781846C3
:1031000001F0D6F8524B1B78002B7FF452AF534B93
:103110005B69524A23F400635361504B5B694F4A29
:1031200023F480535361524B5B69514A23F01003DF
:1031300053614F4B5B694E4A23F480635361504B9C
:103140005B694F4A23F004035361EDE54F493E4864
:1031500003F0BAFB0346002B40F02D810C214C48B4
:1031600001F0B4F83A4B01221A703748FEF7F8F92B
:1031700003461A46374B1A70364B1B78022B40F029
:10318000FC804449304803F09FFB0346002B28D1C4
:10319000324B5B69314A43F4006353612F4B5B69E7
:1031A0002E4A43F4805353611420FEF791F92B4BC0
:1031B0001B6903F40063002B0ED0284B1B6903F43A
:1031C0008053002B08D00C21254801F07FF81121F5
:1031D000244801F07BF8D0E00621234801F076F87E
:1031E000CBE02D49184803F06FFB0346002B59D163
:1031F0001A4B5B69194A23F400635361174B5B69EF
:10320000164A23F4805353611420FEF761F9134BDF
:103210001B6903F40063012B0ED0104B1B6903F4F0
:103220008053012B08D00D211C4801F04FF81221CA
:103230001B4801F04BF8A0E006210B4801F046F8CE
:103240009BE000BF3C740008B807002048740008E9
:10325000E80B0020E007002058740008001402402A
:103260009473000868740008A47300087C74000854
:1032700000040240BC7300088C7400089C740008B1
:1032800000100240A4740008AC740008BC7400086C
:10329000C8740008D8740008E87400082C7400088A
:1032A000F87400084C494D4803F00EFB0346002B10
:1032B00028D14B4B5B694A4A43F010035361484B9A
:1032C0005B69474A43F4806353611420FEF700F9B9
:1032D000434B1B6903F01003002B0ED0404B1B69BE
:1032E00003F48063002B08D00F213E4800F0EEFF6E
:1032F0000E213D4800F0EAFF3FE006213B4800F088
:10330000E5FF3AE03A49354803F0DEFA0346002B80
:1033100028D1334B5B69324A23F010035361304BA1
:103320005B692F4A23F4806353611420FEF7D0F8C1
:103330002B4B1B6903F01003012B0ED0284B1B698C
:1033400003F48063012B08D010212A4800F0BEFF4F
:103350000F21294800F0BAFF0FE00621234800F0B2
:10336000B5FF0AE0FEF744F903461A46234B1A70EC
:10337000224B1B78184600F09BFF204B1B78002B3C
:103380007FF4F3AE1E4B5B691D4A23F40063536167
:103390001B4B5B691A4A23F480535361104B5B69E2
:1033A0000F4A23F0100353610D4B5B690C4A23F461
:1033B00080635361B8E41349084803F085FA034673
:1033C000002B04D11E21104800F080FFACE40C213A
:1033D0000E4800F07BFFA7E47C740008B8070020CB
:1033E00000040240BC7300088C740008A473000839
:1033F0000C750008DC7300081C750008E80B002041
:10340000001402402C75000834750008547500083B
:1034100080B400AF0E4B5B690D4A23F4FD4323F0EB
:103420007E0353610B4B5B690A4A23F47E4353616D
:10343000094B5B69084A23F008035361074B5B693A
:10344000064A23F48053536100BFBD4680BC7047D9
:10345000000C024000180240000402400014024028
:1034600080B500AFA249A34803F02EFA0346002B13
:103470000FD1FFF7CDFFA04B5B699F4A43F4805308
:1034800053619E4B5B699D4A43F400735361012372
:1034900061E29B49974803F017FA0346002B09D1D4
:1034A000FFF7B6FF954B5B69944A43F48063536121
:1034B000022350E293498F4803F006FA0346002B9B
:1034C00009D1FFF7A5FF8D4B5B698C4A43F400637C
:1034D000536103233FE28C49864803F0F5F9034624
:1034E000002B09D1FFF794FF844B5B69834A43F4B7
:1034F0008053536104232EE284497E4803F0E4F9AB
:103500000346002B09D1FFF783FF7C4B5B697B4AA5
:1035100043F40053536105231DE27D49754803F0D0
:10352000D3F90346002B09D1FFF772FF734B5B6998
:10353000724A43F48043536106230CE275496D4897
:1035400003F0C2F90346002B09D1FFF761FF6B4B73
:103550005B696A4A43F0020353610723FBE16E494A
:10356000644803F0B1F90346002B0FD1FFF750FF79
:10357000624B5B69614A43F0020353615F4B5B69D5
:103580005E4A43F0040353610823E4E16349594868
:1035900003F09AF90346002B09D1FFF739FF574B87
:1035A0005B69564A43F0080353610923D3E15C4940
:1035B000504803F089F90346002B0FD1FFF728FF8D
:1035C0004E4B5B694D4A43F0080353614B4B5B69BB
:1035D0004A4A43F0100353610A23BCE1514945486C
:1035E00003F072F90346002B09D1FFF711FF434B9B
:1035F0005B69424A43F0200353610B23ABE14A4924
:103600003C4803F061F90346002B0FD1FFF700FFA0
:103610003A4B5B69394A43F020035361374B5B698E
:10362000364A43F0400353610C2394E13F4931484B
:1036300003F04AF90346002B09D1FFF7E9FE2F4BAF
:103640005B692E4A43F0800353610D2383E13849BF
:10365000284803F039F90346002B0FD1FFF7D8FEB5
:10366000264B5B69254A43F080035361314B5B690C
:10367000304A43F4007353610E236CE12E491D4818
:1036800003F022F90346002B09D1FFF7C1FE294BB5
:103690005B69284A43F4806353610F235BE1274948
:1036A000144803F011F90346002B0FD1FFF7B0FEC9
:1036B000204B5B691F4A43F4806353611D4B5B6978
:1036C0001C4A43F400635361102344E11C49094838
:1036D00003F0FAF80346002B34D1FFF799FE074BAD
:1036E0005B69064A43F002035361112333E100BFD3
:1036F00064750008B807002000140240000C024066
:10370000707500087C7500088875000898750008B9
:10371000A8750008B8750008CC750008E0750008A9
:10372000F4750008087600081C760008307600085A
:103730004476000800180240587600086C760008AD
:10374000807600088549864803F0BEF80346002BC2
:103750000FD1FFF75DFE834B5B69824A43F00203A2
:103760005361804B5B697F4A43F00403536112232A
:10377000F1E07D497A4803F0A7F80346002B09D110
:10378000FFF746FE774B5B69764A43F008035361C7
:103790001323E0E07549724803F096F80346002BC6
:1037A0000FD1FFF735FE6F4B5B696E4A43F008039C
:1037B00053616C4B5B696B4A43F0100353611423F4
:1037C000C9E06B49664803F07FF80346002B09D136
:1037D000FFF71EFE634B5B69624A43F020035361AF
:1037E0001523B8E063495E4803F06EF80346002BEA
:1037F0000FD1FFF70DFE5B4B5B695A4A43F0200384
:103800005361584B5B69574A43F040035361162399
:10381000A1E05949524803F057F80346002B09D15B
:10382000FFF7F6FD4F4B5B694E4A43F0800353614F
:10383000172390E051494A4803F046F80346002B0D
:103840000FD1FFF7E5FD474B5B69464A43F0800324
:1038500053614B4B5B694A4A43F40073536118232D
:1038600079E048493E4803F02FF80346002B09D180
:10387000FFF7CEFD424B5B69414A43F480635361DD
:10388000192368E04049364803F01EF80346002B30
:103890000FD1FFF7BDFD3A4B5B69394A43F48063B2
:1038A0005361374B5B69364A43F4006353611A2313
:1038B00051E036492A4803F007F80346002B09D1A6
:1038C000FFF7A6FD2E4B5B692D4A43F480535361ED
:1038D0001B2340E02E49224802F0F6FF0346002B4E
:1038E00009D1FFF795FD264B5B69254A43F48043D8
:1038F00053611D232FE02749194802F0E5FF0346D5
:10390000002B09D1FFF784FD1D4B5B691C4A43F472
:10391000004353611E231EE01F49114802F0D4FFEB
:103920000346002B09D1FFF773FD1C4B5B691B4A53
:1039300043F0080353611F230DE01949084802F0C2
:10394000C3FF0346002B03D1FFF762FD202302E0F3
:10395000FFF75EFD0023184680BD00BF9476000887
:10396000B8070020000C0240A8760008BC760008CA
:10397000D0760008E4760008F87600080C77000896
:1039800000180240207700083477000848770008C4
:10399000507700085877000860770008000402405C
:1039A0006877000880B489B000AF78600023BB61FD
:1039B00000237B610023FB6102233B610023FB604A
:1039C0000223BB604A4B9B6803F00C03BB61BB69DD
:1039D000082B11D0BB69082B44D8BB69002B03D03E
:1039E000BB69042B04D03DE07B68424A1A603DE08D
:1039F0007B68414A1A6039E03D4B5B689B0D03F0E0
:103A00000103FB603A4B5B6803F03F03BB60FB685C
:103A1000002B0CD0384ABB68B2FBF3F3344A52682F
:103A20009209C2F3080202FB03F3FB610BE0314A87
:103A3000BB68B2FBF3F32E4A52689209C2F3080244
:103A400002FB03F3FB612A4B5B681B0C03F00303CF
:103A500001335B003B61FA693B69B2FBF3F27B68BF
:103A60001A6003E07B68234A1A6000BF204B9B6802
:103A700003F0F003BB61BB691B09BB611F4ABB6953
:103A800013441B78DBB27B617B681A687B69DA4080
:103A90007B685A60164B9B6803F4E053BB61BB69BB
:103AA0009B0ABB61154ABB6913441B78DBB27B617F
:103AB0007B685A687B69DA407B689A600C4B9B682C
:103AC00003F46043BB61BB695B0BBB610B4ABB6921
:103AD00013441B78DBB27B617B685A687B69DA40F0
:103AE0007B68DA6000BF2437BD4680BC704700BFEA
:103AF000003802400024F40000127A004C0000203C
:103B000080B483B000AF78600B46FB70FB78002B6D
:103B100006D0094B1A6B08497B6813430B6306E018
:103B2000054B1A6B7B68DB43034913400B6300BFF3
:103B30000C37BD4680BC70470038024080B483B06B
:103B400000AF78600B46FB70FB78002B06D0094B6A
:103B50005A6B08497B6813434B6306E0054B5A6B6D
:103B60007B68DB43034913404B6300BF0C37BD4602
:103B700080BC70470038024080B483B000AF7860EA
:103B80000B46FB70FB78002B06D0094B1A6C0849DA
:103B90007B6813430B6406E0054B1A6C7B68DB43C0
:103BA000034913400B6400BF0C37BD4680BC70470F
:103BB0000038024080B483B000AF78600B46FB70E1
:103BC000FB78002B06D0094B5A6C08497B681343DD
:103BD0004B6406E0054B5A6C7B68DB43034913409A
:103BE0004B6400BF0C37BD4680BC704700380240B4
:103BF00080B483B000AF78600B46FB70FB78002B7D
:103C000006D0094B1A6A08497B6813430B6206E029
:103C1000054B1A6A7B68DB43034913400B6200BF04
:103C20000C37BD4680BC70470038024080B400AFFE
:103C3000044B5B69034A23F00C03536100BFBD468C
:103C400080BC7047001C024080B582B000AF1C49A8
:103C50001C4802F039FE0346002B09D1FFF7E6FFAE
:103C6000194B5B69184A43F00C035361012323E0AD
:103C70001649144802F028FE0346002B19D10023F0
:103C8000FB71FFF7D3FF1248FEF7B4FBFEF7D6F93E
:103C90000346FB71FB79012BF8D10E48FEF7AAFB16
:103CA0004FF47A70FDF714FC0A48FEF7A3FB0223D9
:103CB00002E0FFF7BBFF002318460837BD4680BD72
:103CC00070770008B8070020001C02407C770008CD
:103CD000887700089477000880B483B000AF03466B
:103CE0003960FB713B6812221A80034B18460C376F
:103CF000BD4680BC704700BF7800002080B483B010
:103D000000AF03463960FB713B6804221A80034B05
:103D100018460C37BD4680BC704700BF9800002095
:103D200080B582B000AF03463960FB713A68044940
:103D3000044801F0EAF8024B18460837BD4680BD3A
:103D4000C80F0020A077000880B582B000AF0346FE
:103D50003960FB713A680449044801F0D6F8024B17
:103D600018460837BD4680BDC80F0020A077000860
:103D700080B582B000AF03463960FB713A680449F0
:103D8000044801F0C2F8024B18460837BD4680BD12
:103D9000C80F0020A877000880B582B000AF0346A6
:103DA0003960FB713A680449044801F0AEF8024BEF
:103DB00018460837BD4680BDC80F0020B8770008F8
:103DC00080B582B000AF03463960FB713A680449A0
:103DD000044801F09AF8024B18460837BD4680BDEA
:103DE000C80F0020C477000880B487B000AF7860A7
:103DF000396000237B6100233B610023FB600023CB
:103E00007B6176E001227B6902FA03F33B613B6848
:103E10001B683A691340FB60FA683B699A4265D1B6
:103E20007B681A687B695B00032101FA03F3DB43BB
:103E30001A407B681A607B681A683B681B791946D0
:103E40007B695B0001FA03F31A437B681A603B68E5
:103E50001B79012B03D03B681B79022B2ED17B6889
:103E60009A687B695B00032101FA03F3DB431A4084
:103E70007B689A607B689A683B685B7919467B69C6
:103E80005B0001FA03F31A437B689A607B685A6807
:103E90007B699BB2194601238B40DB431A407B6848
:103EA0005A607B685B683A68927911467A6992B287
:103EB00001FA02F292B21A437B685A607B68DA68B0
:103EC0007B699BB25B00032101FA03F3DB431A40D9
:103ED0007B68DA607B68DA683B68DB7919467B6966
:103EE0005B0001FA03F31A437B68DA607B690133F4
:103EF0007B617B690F2B85D900BF00BF1C37BD4696
:103F000080BC704780B485B000AF78600B467B8082
:103F100013467B700023FB600023BB607A787B88AC
:103F200003F007039B0002FA03F3FB607B88DB08C6
:103F30009BB21A467B68083253F822207B8803F034
:103F400007039B000F2101FA03F3DB437988C908BB
:103F500089B2084602EA03017B6800F1080243F8CF
:103F600022107B88DB089BB21A467B68083253F824
:103F70002230FA681343BB607B88DB089BB21A4689
:103F80007B680832B96843F8221000BF1437BD4679
:103F900080BC704780B400AF064B00221A60064B0D
:103FA00000221A60054B00221A7000231846BD46F5
:103FB00080BC7047C40F0020C00F0020BC0D002043
:103FC00080B400AF00231846BD4680BC7047000097
:103FD00080B485B000AFF860B9607A60FB68232BCD
:103FE00000F2988001A252F823F000BF15410008AA
:103FF0001541000815410008154100081541000849
:104000001541000815410008154100081541000838
:104010001541000815410008154100081541000828
:104020001541000815410008154100081541000818
:104030001541000815410008154100081541000808
:1040400015410008154100081541000815410008F8
:1040500015410008154100081541000815410008E8
:104060001541000815410008154100087D40000871
:10407000C14000081541000815410008BB681B78C5
:104080001A46BB6801331B781B021A43BB68023314
:104090001B781B041A43BB6803331B781B061343AE
:1040A0001A46204B1A60BB681A791E4B1A71BB68FE
:1040B0005A791C4B5A71BB689A791A4B9A712AE04B
:1040C000184B1B68DAB2BB681A70164B1B681A0AC9
:1040D000BB680133D2B21A70124B1B681A0CBB6852
:1040E0000233D2B21A700F4B1B681A0EBB6803332F
:1040F000D2B21A70BB6804330A4A12791A70BB68CC
:104100000533084A52791A70BB680633054A92791A
:104110001A7000E000BF002318461437BD4680BC6B
:10412000704700BF9C00002080B485B000AF78606D
:1041300039600023FB6018E07A68FB681A44104B72
:104140001B6811780F4AD1540D4B1B6801330C4A80
:104150001360FB680133FB60094B1B6840F2FE7281
:10416000934202D9064B00221A60FA683B689A42D1
:10417000E2D3002318461437BD4680BC704700BF09
:10418000A80100208810002080B487B000AF7860BC
:10419000396000237B6125E0174B1B680133C3F3B3
:1041A00008033B61144A3B691360144B1B683A696E
:1041B0009A4201D102231AE07A687B6913441B7882
:1041C000FB73FB7B0D2B05D10D4B1B780133DAB252
:1041D0000B4B1A700B4A3B691344FA7B1A707B69CC
:1041E00001337B617A693B689A42D5D30023184634
:1041F0001C37BD4680BC7047C40F0020C00F002094
:10420000BC0D0020C00D002080B487B000AF7860E6
:104210000023FB82224B1B78002B01D100233AE0C4
:10422000204B1A68204B1B689A4204D11C4B002279
:104230001A7000232FE00023FB821B4B1B68013305
:10424000C3F308033B61184A3B691360174A3B6993
:1042500013441B78FB73FB7B1F2B07D9FB8A7A68FF
:104260001344FA7B1A70FB8A0133FB820D4B1A68E8
:104270000D4B1B689A4202D0FB7B0D2BDDD1FB8AD4
:104280007A68134400221A70054B1B78013BDAB29E
:10429000034B1A70FB8A18461C37BD4680BC70471A
:1042A000BC0D0020C40F0020C00F0020C00D002056
:1042B00080B582B000AF0346FB71FB1D012118469B
:1042C000FFF732FF00BF0837BD4680BD80B582B022
:1042D00000AF786039603B6819467868FFF724FFC3
:1042E00000BF0837BD4680BD80B500AF124B1B68CC
:1042F000114A43F0010313600F4B00229A600E4BEA
:104300001B680D4A23F0847323F4803313600A4B37
:104310000A4A5A60084B1B68074A23F4802313603B
:10432000054B0022DA6000F08DF8054B4FF000627B
:104330009A6000BF80BD00BF0038024010300024EA
:1043400000ED00E080B487B000AF00233B610023A4
:104350007B610223FB600023BB6002237B60344B44
:104360009B6803F00C033B613B69082B11D03B6950
:10437000082B44D83B69002B03D03B69042B04D0A5
:104380003DE02C4B2C4A1A603DE02A4B2B4A1A6028
:1043900039E0274B5B689B0D03F00103BB60244BA6
:1043A0005B6803F03F037B60BB68002B0CD0234AA3
:1043B0007B68B2FBF3F31E4A52689209C2F308020B
:1043C00002FB03F37B610BE01B4A7B68B2FBF3F358
:1043D000174A52689209C2F3080202FB03F37B6199
:1043E000134B5B681B0C03F0030301335B00FB60A2
:1043F0007A69FB68B2FBF3F30E4A136003E00D4BDE
:104400000D4A1A6000BF0A4B9B681B0903F00F039B
:104410000B4AD35CDBB23B61064B1A683B6922FA5C
:1044200003F3044A136000BF1C37BD4680BC7047CD
:1044300000380240B80000200024F40000127A0086
:10444000BC00002080B483B000AF00237B60002359
:104450003B60354B1B68344A43F480331360324B66
:104460001B6803F400333B607B6801337B603B686F
:10447000002B03D17B68B3F5A06FF0D12A4B1B68EA
:1044800003F40033002B02D001233B6001E0002342
:104490003B603B68012B42D1234B1B6C224A43F00B
:1044A00080531364214B1B68204A43F480431360FC
:1044B0001D4B1D4A9B6893601B4B9B681A4A43F433
:1044C00000439360184B9B68174A43F4A0539360D2
:1044D000154B174A5A60144B1B68134A43F08073FC
:1044E000136000BF104B1B6803F00073002BF9D062
:1044F000104B40F205621A600B4B9B680A4A23F08E
:1045000003039360084B9B68074A43F002039360E0
:1045100000BF054B9B6803F00C03082BF9D100BFCB
:104520000C37BD4680BC7047003802400070004028
:10453000042A4007003C024080B584B000AF786098
:1045400001210120FFF7DCFA4FF4D853BB600323AD
:104550007B7302233B730023BB730023FB7307F1C0
:10456000080319461B48FFF73FFC0A220821194897
:10457000FFF7C8FC0A2209211648FFF7C3FC0A22EC
:104580000B211448FFF7BEFC0A220C211148FFF74B
:10459000B9FC4FF48063BB600123BB730123FB7341
:1045A00003237B7307F1080319460A48FFF71CFC35
:1045B0000A220A210748FFF7A5FC01218020FFF706
:1045C000BDFA01214FF08050FFF712FB00BF1037FA
:1045D000BD4680BD0000024080B584B000AF786069
:1045E0004FF4C06001F0CEFC43233B7301237B7387
:1045F0000323BB730123FB7307F10C03184601F07F
:10460000D3FC00BF1037BD4680BD000080B485B02C
:1046100000AF78600023FB607A6813461B019B1A89
:10462000DB001A460A4BA3FB0213D21A52081344AA
:104630009B08BB60FB680133FB60FA68BB689A4269
:1046400000D8F7E700BF1437BD4680BC704700BFF5
:104650002549922480B582B000AF78607B684FF422
:104660007A7202FB03F31846FFF7D0FF00BF08374A
:10467000BD4680BD80B500AF024800F0A0FC00BF81
:1046800080BD00BFC801002080B584B000AF786055
:1046900039600023FB733B685B78092B39D801A292
:1046A00052F823F0F54600080947000813470008B0
:1046B000FF46000813470008D7460008CD4600080B
:1046C00013470008EB460008E1460008396878689F
:1046D00000F03AF922E03968786800F009FA1DE044
:1046E0003968786800F044FA18E03968786800F0B2
:1046F000B9FA13E03968786800F0E4FA0EE0396836
:10470000786800F007FB09E03968786800F06AFB18
:1047100004E03968786800F0D5FB00BFFB7B1846E1
:104720001037BD4680BD00BF80B584B000AF786053
:1047300039600023FB737B6893F81231032B1BD184
:104740003B689B88DBB2012B11D87B68D3F8E0353E
:104750009B683968786898473B68DB88002B10D1E4
:10476000FB7B002B0DD1786801F008FF09E0396868
:10477000786800F0A7FB04E03968786800F0A2FBD5
:1047800000E000BFFB7B18461037BD4680BD00002F
:1047900080B584B000AF786039600023FB733B685C
:1047A0009B88BB733B685B78032B07D0032B00F31C
:1047B000C380002B6ED0012B35D0BDE07B6893F811
:1047C0001231022B02D0032B0CD025E0BB7B002B37
:1047D00027D0BB7B802B24D0BB7B1946786801F0A7
:1047E000D2FD1EE03B685B88002B0AD1BB7B002B0F
:1047F00007D0BB7B802B04D0BB7B1946786801F0C7
:10480000C2FD7B68D3F8E0359B68396878689847C3
:10481000786801F0B3FE05E03968786800F052FB73
:1048200000E000BF89E07B6893F81231022B02D0D0
:10483000032B0CD025E0BB7B002B27D0BB7B802B30
:1048400024D0BB7B1946786801F09DFD1EE03B68D3
:104850005B88002B1CD1BB7B002B0ED0BB7B802B3D
:104860000BD0BB7B1946786801F0C8FD7B68D3F894
:10487000E0359B68396878689847786801F07EFE73
:1048800006E03968786800F01DFB02E000BF54E0E4
:1048900000BF52E07B6893F81231022B02D0032B49
:1048A0000CD042E0BB7B002B44D0BB7B802B41D0A3
:1048B000BB7B1946786801F066FD3BE097F90E3046
:1048C000002B15DABB7B03F07F02796813469B004F
:1048D0001344DB000B4403F58D731B78002B03D0CE
:1048E000184B01221A601AE0164B00221A6016E0DB
:1048F00097F90E30002B12DBBA7B796813469B00C8
:104900001344DB000B4403F272331B78002B03D0FB
:104910000C4B01221A6002E00A4B00221A600222AC
:104920000849786801F0C2FD05E03968786800F050
:10493000C9FA00E000BF00E000BFFB7B184610375B
:10494000BD4680BD9401002080B584B000AF786082
:1049500039603B685B881B0A9BB2013B062B00F267
:10496000A98001A252F823F085490008B549000842
:10497000DD490008B54A0008B54A0008A14A000808
:10498000AB4A00087B68D3F8E8351B687A689278F0
:1049900007F10A0110469847F8603B68DB88402B16
:1049A00005D07B6893F81231012B40F088800823F2
:1049B0007B8184E07B68D3F8E0359B6A7A689278E3
:1049C00007F10A0110469847F860FB68013302229C
:1049D0001A707B68FA68C3F8EC2571E03B685B8865
:1049E000DBB2052B56D801A252F823F0054A000885
:1049F0001D4A0008354A00084D4A0008654A00086B
:104A00007D4A00087B68D3F8E8355B687A6892785D
:104A100007F10A0110469847F86040E07B68D3F838
:104A2000E8359B687A68927807F10A011046984742
:104A3000F86034E07B68D3F8E835DB687A68927810
:104A400007F10A0110469847F86028E07B68D3F820
:104A5000E8351B697A68927807F10A011046984791
:104A6000F8601CE07B68D3F8E8355B697A68927877
:104A700007F10A0110469847F86010E07B68D3F808
:104A8000E8359B697A68927807F10A0110469847E1
:104A9000F86004E03968786800F014FA25E00FE067
:104AA0003968786800F00EFA1FE03968786800F01D
:104AB00009FA1AE03968786800F004FA15E000BFD6
:104AC0007B89002B11D03B68DB88002B0DD03B6825
:104AD000DA887B89934228BF13469BB27B817B890E
:104AE0001A46F968786801F0E1FC1037BD4680BDD0
:104AF00080B584B000AF786039603B689B88002B3C
:104B00002CD13B68DB88002B28D13B685B88DBB26B
:104B100003F07F03FB737B6893F81231032B04D1FE
:104B20003968786800F0CEF91DE07B68FA7B83F87D
:104B30001321FB7B1946786801F09BFC786801F033
:104B40001DFDFB7B002B04D07B68022283F8122121
:104B500009E07B68012283F8122104E03968786853
:104B600000F0B0F900BF00BF1037BD4680BD0000A7
:104B700080B582B000AF786039603B685B88DAB29C
:104B8000374B1A70364B1B78012B04D9396878687B
:104B900000F098F95FE07B6893F81231022B02D0A5
:104BA000032B1BD052E02E4B1B78002B12D02C4B2A
:104BB0001A787B6883F810217B68032283F812211E
:104BC000274B1B7819467868FEF710F8786801F0D3
:104BD000D5FC40E0786801F0D1FC3CE0204B1B782C
:104BE000002B12D17B68022283F812211C4B1A7809
:104BF0007B6883F810211A4B1B7819467868FEF7FA
:104C00000DF8786801F0BAFC25E07B6893F8102174
:104C1000134B1B789A4215D07B6893F810311946D4
:104C20007868FDF7FBFF0E4B1A787B6883F810213C
:104C30000B4B1B7819467868FDF7D8FF786801F0B0
:104C40009DFC08E0786801F099FC04E03968786818
:104C500000F038F900BF00BF0837BD4680BD00BF77
:104C6000A001002080B582B000AF786039603B6859
:104C7000DB88012B04D03968786800F023F91BE049
:104C80007B6893F81231022B02D0032B06D00EE082
:104C900001220B49786801F009FC0DE07B6803F5FF
:104CA000887301221946786801F000FC04E0396835
:104CB000786800F007F900BF00BF0837BD4680BD27
:104CC0009801002080B582B000AF786039607B68C1
:104CD00093F81231023B012B11D87B68D3F81431C1
:104CE000002B03D00A4B03221A6002E0084B01227A
:104CF0001A6001220649786801F0D8FB04E039689F
:104D0000786800F0DFF800BF00BF0837BD4680BDFF
:104D10009C01002080B584B000AF7860396000232A
:104D2000FB733B685B88012B0ED17B680122C3F8C3
:104D300014217B68D3F8E0359B6839687868984718
:104D4000786801F01BFC48E03B685B88022B44D18B
:104D50003B689B88DBB2002B3FD17B681B695B689B
:104D6000BB603B689B881B0A9BB2FB73FB7B013BD0
:104D7000042B2BD801A252F823F000BF914D00085C
:104D80009D4D0008A94D0008B54D0008C14D000813
:104D90003B7A012262F306133B7217E03B7A022250
:104DA00062F306133B7211E03B7A032262F30613AF
:104DB0003B720BE03B7A042262F306133B7205E080
:104DC0003B7A052262F306133B7200BF7B681B69C6
:104DD000BA685A60786801F0D1FB00BF1037BD4651
:104DE00080BD00BF80B582B000AF786039607B685D
:104DF00093F81231023B012B12D83B685B88012BE0
:104E000013D17B680022C3F814217B68D3F8E03506
:104E10009B68396878689847786801F0AFFB04E0D0
:104E20003968786800F04EF800E000BF00BF08372E
:104E3000BD4680BD80B483B000AF786039607B68C8
:104E400093F8C8253B681A707B6893F8C9253B68BE
:104E50005A707B6893F8CA359AB27B6893F8CB3561
:104E60009BB21B029BB213449AB23B685A807B6888
:104E700093F8CC359AB27B6893F8CD359BB21B0280
:104E80009BB213449AB23B689A807B6893F8CE3504
:104E90009AB27B6893F8CF359BB21B029BB2134446
:104EA0009AB23B68DA803B68DB881A467B68C3F8B5
:104EB0003C217B68012283F8112100BF0C37BD46DD
:104EC00080BC704780B582B000AF786039603B68C5
:104ED0001B785BB2002B04DA8021786801F053FA6A
:104EE0000CE03B68DB88002B04D18021786801F05E
:104EF0004AFA03E00021786801F045FA7868FCF787
:104F00004EFA00BF0837BD4680BD80B586B000AF01
:104F1000F860B9607A600023FB75FB68002B33D022
:104F2000F86800F035F8034601339BB25B009AB293
:104F30007B681A807B681A88FB7D591CF9751946B5
:104F4000BB680B44D2B21A70FB7D5A1CFA751A4624
:104F5000BB68134403221A7012E0FB685A1CFA6003
:104F6000FA7D511CF9751146BA680A441B78137012
:104F7000FB7D5A1CFA751A46BB68134400221A704E
:104F8000FB681B78002BE8D100BF1837BD4680BDF9
:104F900080B485B000AF78600023FB7305E0FB7B35
:104FA0000133FB737B6801337B607B681B78002BCC
:104FB000F5D1FB7B18461437BD4680BC704780B5E1
:104FC00086B000AF786000237B617868FBF729FC2E
:104FD0000346002B00F0B6807868FBF733FC0346ED
:104FE0003B613B69002B01D10023ACE0BB7C03F0AB
:104FF0000803DBB2002B06D0786800F065FA0246A1
:105000007B6913437B61BB7C03F00403DBB2002BA1
:1050100006D0786800F062F902467B6913437B6131
:105020003B7C03F00203DBB2002B09D00023FB60C2
:105030003B7B43F002033B737B68DB68FA685A6191
:10504000FB7C23F07F03DBB2002B06D0786800F0F6
:10505000B7F802467B6913437B617B7C03F008034E
:10506000DBB2002B06D0786800F0EAF802467B69D4
:1050700013437B613B7C03F00803DBB2002B06D0BB
:10508000786800F0DDFA02467B6913437B613B7C64
:1050900003F01003DBB2002B06D0786800F0EAFAC8
:1050A00002467B6913437B617B7C03F01003DBB218
:1050B000002B06D0786800F0E7FB02467B691343BB
:1050C0007B617B7C03F02003DBB2002B06D0786889
:1050D00000F076FC02467B6913437B61BB7C03F0E6
:1050E0001003DBB2002B06D0786800F0A5FC024666
:1050F0007B6913437B61BB7C03F02003DBB2002B95
:1051000006D0786800F0B2FC02467B6913437B61ED
:10511000FB7C03F04003DBB2002B06D0786800F084
:1051200017F802467B6913437B613B7C03F0040361
:10513000DBB2002B06D0786800F024F802467B69C9
:1051400013437B617B6918461837BD4680BD00005C
:1051500080B584B000AF7860094B1B685B6A7868E3
:1051600098470023FB60FB7B43F04003FB737B68A5
:10517000DB68FA685A61012318461037BD4680BDC6
:105180004800002080B584B000AF78607B68DB68A1
:105190005B68FB603B7B03F00403DBB2002B04D0B5
:1051A000064B1B689B6A786898477B68DB68FA68DF
:1051B0005A60012318461037BD4680BD48000020C4
:1051C00080B586B000AF78607B689B7A002B11D0E9
:1051D0007B6803F586731B68FB603B7B6FF34103C1
:1051E0003B733B7B6FF300033B737B68D3F80C315D
:1051F000FA681A6000233B613B7C43F001033B7477
:105200007B681B6959683B69DA437B681B690A4004
:105210005A600A4B1B689B697868984700237B613A
:10522000FB7D43F08003FB757B68DB687A695A611C
:10523000012318461837BD4680BD00BF4800002036
:1052400080B586B000AF7860224B1B685B697868D8
:1052500098477B681B699B68FB6000237B617B7DB3
:1052600043F008037B757B68DB687A695A617B6869
:105270009B7A002B29D03B7B03F00103DBB2002B90
:1052800023D000233B613B7C43F001033B747B68EC
:10529000D3F80C3119683A697B68D3F80C310A43AA
:1052A0001A603B7C43F002033B747B68D3F80C31FB
:1052B00019683A697B68D3F80C310A431A60064BC7
:1052C0001B69054A43F0060313610123184618378A
:1052D000BD4680BD4800002000ED00E080B586B0EE
:1052E00000AF786000233B610023BB607868FCF767
:1052F00041F87861DCE07B6903F00103002B00F0EA
:10530000D1803B69DBB21946786800F0C9FB0346DF
:10531000BB603B7A03F00103DBB2002B32D00122E9
:105320003B6902FA03F3FB607B681B69596BFB68FE
:10533000DA437B681B690A405A630023BB603B7AEF
:1053400043F001033B727A683B6904339B001344CA
:105350009B68BA689A605B4B1B685B683A69D2B21B
:105360001146786898477B68DB78012B0AD13B6946
:10537000002B07D17B6893F81131042B02D1786898
:10538000FCF70DF83B7A03F00403DBB2002B0DD0E1
:105390000023BB603B7A43F004033B727A683B69AD
:1053A00004339B0013449B68BA689A603B7A03F00D
:1053B0000803DBB2002B0DD00023BB603B7A43F027
:1053C00008033B727A683B6904339B0013449B6873
:1053D000BA689A603B7A03F01003DBB2002B0DD061
:1053E0000023BB603B7A43F010033B727A683B6951
:1053F00004339B0013449B68BA689A603B7A03F0BD
:105400002003DBB2002B0DD00023BB603B7A43F0BE
:1054100020033B727A683B6904339B0013449B680A
:10542000BA689A603B7A03F04003DBB2002B0DD0E0
:105430000023BB603B7A43F040033B727A683B69D0
:1054400004339B0013449B68BA689A603B7A03F06C
:105450000203DBB2002B0DD00023BB603B7A43F08C
:1054600002033B727A683B6904339B0013449B68D8
:10547000BA689A603B7A23F07F03DBB2002B11D02D
:105480003969786800F078F90023BB603B7A43F013
:1054900080033B727A683B6904339B0013449B682A
:1054A000BA689A603B6901333B617B695B087B6149
:1054B0007B69002B7FF41FAF012318461837BD46C8
:1054C00080BD00BF4800002080B586B000AF786086
:1054D00000233B610023FB607868FBF71CFF7861C9
:1054E000A3E07B6903F00103002B00F098803B6987
:1054F000DBB219467868FBF723FF0346FB603B7B72
:1055000003F00103DBB2002B48D00023FB603B7BA0
:1055100043F001033B737A683B6914339B001344E7
:105520005B68FA689A607B68DB78012B1FD17A6828
:105530003B6914339B0013445B681B69BB6079684B
:105540003A6913469B001344DB000B4403F55E737A
:105550001B68BA68C2F31202991A78683A6913464E
:105560009B001344DB00034403F562731960334B63
:105570001B681B683A69D2B21146786898477B6805
:10558000DB78012B0AD13B69002B07D17B6893F8AC
:105590001131052B02D17868FBF701FF3B7B03F04B
:1055A0000203DBB2002B0DD00023FB603B7B43F0FA
:1055B00002033B737A683B6914339B0013445B68B6
:1055C000FA689A603B7B03F00403DBB2002B0DD03A
:1055D0000023FB603B7B43F004033B737A683B6929
:1055E00014339B0013445B68FA689A603B7B03F0BA
:1055F0000803DBB2002B12D0104B1B689B68786845
:1056000098470023FB603B7B43F008033B737A68B9
:105610003B6914339B0013445B68FA689A603B69EA
:1056200001333B617B695B087B617B69002B7FF405
:1056300058AF012318461837BD4680BD48000020EA
:1056400080B584B000AF7860094B1B68DB68786870
:1056500098470023FB603B7B43F008033B737B6868
:10566000DB68FA685A61012318461037BD4680BDD1
:105670004800002080B586B000AF786000233B6111
:105680003B7C43F010033B747B68DB6899693B69A2
:10569000DA437B68DB680A409A617B68DB681B6AD7
:1056A000FB603B7BC3F30303DBB21A4613469B004C
:1056B0001344DB0003F55C737A6813447B61BB7BA6
:1056C000C3F34303DBB2013B052B45D801A252F8DB
:1056D00023F000BF59570008ED560008595700083D
:1056E000595700085957000835570008BA8947F636
:1056F000F07313409BB2002B30D07B69D968BB8913
:10570000C3F30A139BB21A467868FAF7E1FD7B6986
:10571000DB68BA89C2F30A1292B21A447B69DA6072
:105720007B699B69BA89C2F30A1292B21A447B69F7
:105730009A6113E07B6803F5B9630822194678681B
:10574000FAF7C6FD7B699B69BA89C2F30A1292B265
:105750001A447B699A6102E000BF00E000BF7B68E9
:10576000DB6899693A697B68DB680A439A610123BF
:1057700018461837BD4680BD80B588B000AF786048
:1057800039600023FB610023FB603A6813469B00ED
:105790001344DB0003F58C737A6813447B617B69E7
:1057A0005A697B699B69D31AFB617B699B68FA69BB
:1057B0009A4202D97B699B68FB61FB6903339B08B2
:1057C000BB617A683B6804339B0013449B689B6908
:1057D000FB6044E07B695A697B699B69D31AFB6172
:1057E0007B699B68FA699A4202D97B699B68FB6175
:1057F000FB6903339B08BB617B69D9683B68DAB2FC
:10580000FB699BB27868FAF729FD7B69DA68FB6966
:105810001A447B69DA607B699A69FB691A447B697F
:105820009A617B699A697B695B699A420FD37B694C
:105830001B781A46012393403B617B681B69596BB7
:105840003B69DA437B681B690A405A6316E07A6851
:105850003B6804339B0013449B689B69FB60BB89D6
:105860001A46BB69934209D27B699A697B695B6975
:105870009A4203D27B695B69002BABD101231846A6
:105880002037BD4680BD000080B58AB000AF78608B
:1058900000233B6100233B620023FB610023BB61CB
:1058A00000237B610023FB603B7C43F001033B74DE
:1058B0007B681B6959683B69DA437B681B690A404E
:1058C0005A6000217868FAF707FF00237B6212E034
:1058D0007A687B6A04339B0013449B68FF229A60BA
:1058E0007A687B6A14339B0013445B68FF229A60DA
:1058F0007B6A01337B627B685B781A467B6A9342E2
:10590000E6D37B681B694FF0FF329A6101233B8429
:1059100001237B847B681B693A6ADA613B7F43F031
:1059200008033B773B7F43F001033B773B7F43F02A
:1059300004033B773B7F43F002033B777B681B69A3
:10594000FA695A613B7E43F001033B763B7E43F0AC
:1059500008033B763B7E43F002033B763B7E43F0FD
:1059600004033B763B7E43F020033B767B681B6958
:10597000BA691A617B681B691B687B61BB8A6FF31C
:105980000A13BB827B681B697A691A607868FBF727
:1059900006FD0023FB607B7B43F010037B737B6879
:1059A000DB68FA685A61054B1B681B697868984781
:1059B000012318462837BD4680BD00BF480000209F
:1059C00080B584B000AF78607868FBF718F97B6821
:1059D000DB68DB68BB607868FBF7ECF80346032BF9
:1059E0000CD17B6800229A707B684FF400729A8019
:1059F0007B7A092262F385037B720AE07B680122CD
:105A00009A707B6840229A807B7A052262F3850334
:105A10007B727B68DB68BA68DA600023FB607B7BA3
:105A200043F020037B737B68DB68FA685A610123CB
:105A300018461037BD4680BD80B584B000AF786091
:105A40000023FB60084B1B68DB6978689847BB7BC9
:105A500043F01003BB737B68DB68FA685A6101236B
:105A600018461037BD4680BD4800002080B584B080
:105A700000AF78600023FB60084B1B681B6A7868E6
:105A80009847BB7B43F02003BB737B68DB68FA68F5
:105A90005A61012318461037BD4680BD48000020DA
:105AA00080B487B000AF78600B46FB707B681B69E1
:105AB0001B697B617B681B695B6B3B61FB783A69A7
:105AC00022FA03F3DB01DBB27A6913437B61FB78D3
:105AD0007A6804339B0013449B689B687A6913407F
