:020000040800F2
:100000008820002065290008C1290008C1290008AE
:10001000C1290008C1290008C1290008000000000A
:10002000000000000000000000000000C1290008DE
:10003000C129000800000000C129000811150008AE
:10004000C1290008C1290008C1290008C1290008E8
:10005000C1290008C1290008C1290008C1290008D8
:10006000C1290008C1290008C1290008C1290008C8
:10007000C1290008C1290008C1290008C1290008B8
:10008000C1290008C1290008C1290008C1290008A8
:10009000C1290008C1290008C1290008C129000898
:1000A000C1290008C1290008C1290008C129000888
:1000B000C1290008C1290008C1290008C129000878
:1000C000C1290008C1290008C1290008C129000868
:1000D000C1290008C1290008C1290008C129000858
:1000E000C1290008C1290008C1290008C129000848
:1000F000C1290008C1290008C1290008C129000838
:10010000C1290008C1290008C1290008C129000827
:10011000C1290008C1290008092E0008C1290008CA
:10012000C1290008C1290008C1290008C129000807
:10013000C1290008C1290008C1290008C1290008F7
:10014000C1290008C1290008C1290008A5480008E4
:10015000C1290008C1290008C1290008C1290008D7
:10016000C1290008C1290008C1290008C1290008C7
:10017000C1290008C1290008C1290008C1290008B7
:10018000C1290008C129000880B485B000AF78609B
:100190000023FB607B68DB684FF0FF325A607B68AE
:1001A000DB684FF0FF325A61FB7B43F08003FB7347
:1001B0007B7B43F008037B737B68DB68FA689A619A
:1001C00000BF1437BD4680BC704700BF80B586B005
:1001D00000AF78600023FB7400237B610023FB6089
:1001E000032004F02BFB7B68DB681B69FB607B69E9
:1001F00001337B617B69184A934201D9002326E0D1
:10020000FB68C3F3C073DBB2002BE9D000237B6132
:10021000FB6843F00103FB607B68DB68FA681A61E6
:100220007B68DB681B69FB607B6901337B617B69F1
:10023000094A934206D8FB68C3F30003DBB2012BE3
:10024000EED000E000BF032004F0F8FAFB7C184673
:100250001837BD4680BD00BF400D030080B489B093
:1002600000AFF860B96011461A460B46FB711346A1
:10027000BB800023FB76FB68DB78002B22D10023B8
:100280007B610023FB61BB880333002B00DA03335F
:100290009B107B61FB79FA6832339B0013449B68A7
:1002A0003B610023FB6109E0BB681A683B691A6087
:1002B000FB690133FB61BB680433BB60FA697B698E
:1002C0009A42F1D3FB7E18462437BD4680BC704766
:1002D00080B489B000AFF860B9601346FB8000239A
:1002E000FB61FB880333002B00DA03339B10BB61F7
:1002F000FB68D3F8D0307B610023FB6109E07B69A8
:100300001A68BB681A60FB690133FB61BB68043380
:10031000BB60FA69BB699A42F1D3BB6818462437BF
:10032000BD4680BC704700BF80B487B000AF786026
:100330000B46FB7000233B610023FB737B680022AC
:10034000DA707B6801229A707B6840229A80FB7881
:10035000012B13D14FF0A0433B617B680122DA727D
:100360007B6808221A707B6804225A707B684FF4FD
:10037000A072DA807B6802221A7211E0FB78002BEF
:100380000ED1454B3B617B680022DA727B680C2200
:100390001A707B6806225A707B684FF4A062DA807C
:1003A0003A697B68DA603B6903F500631A467B684B
:1003B0001A6100237B611CE07B695A013B6913448D
:1003C00003F5106319467A687B6904339B00134474
:1003D00099607B695A013B69134403F53063194600
:1003E0007A687B6914339B00134459607B6901333D
:1003F0007B617B685B781A467B699A42DCD83B69F3
:1004000003F580631A467B685A613B6903F588638C
:100410001A467B68C3F8CC2000237B610FE07B6920
:100420005A013B69134403F5A06319467A687B6956
:1004300022339B00134499607B6901337B617B68A5
:100440001B781A467B699A42E9D800237B610FE04A
:100450007B691A033B69134403F5805319467A6894
:100460007B6932339B00134499607B6901337B6164
:100470007B681B781A467B699A42E9D83B6903F589
:1004800060631A467B68C3F80C21FB7B18461C3757
:10049000BD4680BC704700BF0000044080B588B0F6
:1004A00000AF78600023FB770023BB6100237B61F2
:1004B0000023FB607B681B7A012B4ED17B68DB68D5
:1004C0009B6B7B61BB7D6FF30003BB757B685B7AC5
:1004D000002B03D0BB7D43F01003BB757B68DB684A
:1004E0007A699A630023BB617B68DB68DB68BB6168
:1004F0003B7E6FF386133B76BB7E6FF38613BB7632
:100500003B7E43F010033B763B7E6FF3C3033B76A9
:100510003B7E6FF3C7133B76BB7E6FF34103BB7625
:10052000BB7E6FF3C303BB767B68DB68BA69DA60B6
:100530007868FFF74BFE7B68DB78012B7DD13B7B36
:10054000052262F344033B733B7B43F020033B7380
:100550007B68DB68FA689A606FE07B68DB68DB6861
:10056000BB613B7E43F040033B767B68DB68BA6946
:10057000DA607868FFF72AFE00237B61BB7D43F0D9
:100580000103BB757B681B7A032B03D1BB7D43F052
:100590000203BB75BB7D43F00403BB75BB7D43F019
:1005A0000803BB757B685B7A002B03D0BB7D43F0EF
:1005B0001003BB757B68DB687A699A63142004F0CA
:1005C00061F97B68DB68DB68BB617B681B7A032BA6
:1005D00003D1BB7E43F00103BB767B68DB68BA695D
:1005E000DA607B681B7A032B27D17B68DB681B6B87
:1005F0003B61FB7C012262F38303FB74BB7C6FF3E2
:10060000C713BB74FB7C43F01003FB74BB7C2D222F
:1006100062F30603BB747B68DB683A691A63C8201F
:1006200004F030F9BB7C43F08003BB747B68DB686B
:100630003A691A63C82004F025F97B68DB78012B3E
:1006400010D17B68DB689B68FB603B7B052262F313
:1006500044033B733B7B43F020033B737B68DB68C5
:10066000FA689A60FB7F18462037BD4680BD00BF00
:1006700080B485B000AF78600023FB730023BB60BB
:100680003B7A43F001033B727B68DB687A68D2688F
:100690009168BA680A439A60FB7B18461437BD46D6
:1006A00080BC704780B485B000AF78600023FB73D6
:1006B0000023BB603B7A43F001033B727B68DB683D
:1006C0007A68D2689168BA68D2430A409A60FB7B24
:1006D00018461437BD4680BC704700BF80B586B051
:1006E00000AF786039600023FB7400237B61002336
:1006F000FB60FB6843F02003FB603B68DBB203F068
:100700001F03DAB2FB6862F38A13FB607B68DB6865
:10071000FA681A617B68DB681B69FB607B690133DF
:100720007B617B69094A934206D8FB68C3F3401397
:10073000DBB2012BEED000E000BF032004F07EF816
:10074000FB7C18461837BD4680BD00BF400D030036
:1007500080B586B000AF78600023FB7400237B6116
:100760000023FB60FB6843F01003FB607B68DB68E1
:10077000FA681A617B68DB681B69FB607B6901337F
:100780007B617B69094A934206D8FB68C3F3001377
:10079000DBB2012BEED000E000BF032004F04EF8E6
:1007A000FB7C18461837BD4680BD00BF400D0300D6
:1007B00080B584B000AF78600B46FB700023FB73FC
:1007C0007B68DB68DB68BB60FB7A6FF34513FB7209
:1007D000FB7A6FF38613FB72FB78012B04D1FB7A53
:1007E00043F02003FB7206E0FB78002B03D1FB7A79
:1007F00043F04003FB727B68DB68BA68DA60322042
:1008000004F040F8FB7B18461037BD4680BD00BFA2
:1008100080B483B000AF78607B68DB685B6903F00D
:10082000010318460C37BD4680BC704780B582B0C6
:1008300000AF78607868FFF7EBFF0346012B14BF29
:1008400001230023DBB218460837BD4680BD00BF38
:1008500080B485B000AF78600023FB607B68DB6804
:100860005B69FB607B68DB689B69FA681340FB602F
:10087000FB6818461437BD4680BC704780B485B00D
:1008800000AF78600B46FB707B681B691B68FB60E0
:10089000FB7803F00303DAB23B7B62F301033B73A3
:1008A0007B681B69FA681A6000BF1437BD4680BCBC
:1008B000704700BF80B58CB000AF7860002387F828
:1008C0002B3000237B6200233B620023FB6100236B
:1008D000BB6100237B617B68D3F80C3100221A6076
:1008E0007B681B691B683B6297F821306FF3C40378
:1008F00087F821307B681B693A6A1A607B68DB7A6B
:10090000012B33D103217868FFF7B8FF7B68DB68E0
:1009100080225A622023FB838023BB837B68DB68B1
:10092000FA699A62BA8BFB8B13449BB23B83802398
:100930007B837B68DB68BA69C3F804213A8B7B8BC5
:1009400013449BB23B8320237B837B68DB68BA69BB
:10095000C3F808213A8B7B8B13449BB23B83002363
:100960007B837B68DB68BA69C3F80C211021786847
:10097000FFF7B4FE7868FFF7EBFE7B681B69002287
:100980001A617B681B6900225A617B681B694FF002
:10099000FF329A617B681B690022DA610023FB62E7
:1009A0003AE07A68FB6A04339B0013449B681B6837
:1009B0007B6297F8273023F07F03DBB2002B0ED049
:1009C00000237B6297F8273043F0400387F82730F5
:1009D00097F8273043F0080387F8273001E0002319
:1009E0007B627A68FB6A04339B0013449B687A6AD3
:1009F0001A607A68FB6A04339B0013449B680022E8
:100A00001A617A68FB6A04339B0013449B68FF22D7
:100A10009A60FB6A0133FB627B685B781A46FB6A6B
:100A20009A42BED80023FB6235E07A68FB6A143331
:100A30009B0013445B681B68FB60FB7B23F07F0318
:100A4000DBB2002B0AD00023FB60FB7B43F04003AA
:100A5000FB73FB7B43F00803FB7301E00023FB60A7
:100A60007A68FB6A14339B0013445B68FA681A6067
:100A70007A68FB6A14339B0013445B6800221A6196
:100A80007A68FB6A14339B0013445B68FF229A6008
:100A9000FB6A0133FB627B685B781A46FB6A9A4209
:100AA000C3D800237B617B7D43F001037B757B68AA
:100AB0001B697A68126911697A69D24311407A69AF
:100AC0000A431A617B68DB78012B1BD100233B6151
:100AD0003B7C43F001033B743B7C43F002033B74DB
:100AE0003B8A402262F38A033B82BB7C43F00103D2
:100AF000BB747B8A402262F349037B827B681B695B
:100B00003A691A63786800F007F897F82B301846AE
:100B10003037BD4680BD00BF80B584B000AF78607F
:100B20000023FB730023BB607B68DB6800229A61B3
:100B30007B68DB684FF0FF325A617868FFF724FB6F
:100B40007B68DB78002B03D13B7A43F010033B72C8
:100B50007B7A43F008037B727B7A43F010037B724D
:100B60007B7A43F020037B72BB7A43F00403BB72B1
:100B7000BB7A43F00803BB723B7A43F008033B7235
:100B8000BB7A43F01003BB72BB7A43F02003BB7205
:100B9000FB7A43F04003FB723B7A43F004033B7261
:100BA0007B68DB687A68D2689169BA68D243114081
:100BB000BA680A439A61FB7B18461037BD4680BD70
:100BC00080B485B000AF78600023FB737B681B693D
:100BD0009B68BB603B7AC3F34103DBB2022B09D0B5
:100BE000032B04D0012B02D00323FB7305E0022367
:100BF000FB7302E00123FB7300BFFB7B1846143735
:100C0000BD4680BC704700BF80B487B000AF78603D
:100C10000023FB750023BB607B681B699B683B61FD
:100C20007B689B691B68FB603B7CC3F34103DBB2C1
:100C3000022B04D0BB896FF30A03BB8105E0BB899B
:100C4000032262F30A03BB8100BF7B689B69FA68D9
:100C50001A607B7A43F001037B727B681B697A68B8
:100C600012695168BA68D2431140BA680A435A609F
:100C7000FB7D18461C37BD4680BC704780B487B0EA
:100C800000AF786039600023FB740023FB60002311
:100C9000BB603B685B78012B0FD13B681B787A689F
:100CA00004339B0013449B687B613B681B781A46A6
:100CB000012393409BB23B810EE03B681B787A682E
:100CC00014339B0013445B687B613B681B781A46B6
:100CD000012393409BB27B817B691B68FB607B7B1C
:100CE00023F07F03DBB2002B27D13B689B689BB2CC
:100CF000C3F30A039AB2BB8962F30A03BB813B6860
:100D0000DB7803F00303DAB2BB7B62F38303BB73CC
:100D10003B68DB88DBB203F00F03DAB2FB8962F3D6
:100D20008913FB81FB7B43F01003FB737B7B43F058
:100D300080037B73FA687B691A607B681B697A6839
:100D40001269D169BA680A43DA61FB7C18461C371C
:100D5000BD4680BC704700BF80B487B000AF7860EC
:100D600039600023FB740023FB600023BB603B68F9
:100D70005B78012B0FD13B681B787A6804339B00AA
:100D800013449B687B613B681B781A4601239340A0
:100D90009BB23B810EE03B681B787A6814339B0062
:100DA00013445B687B613B681B781A4601239340C0
:100DB0009BB27B817B7B6FF3C7137B73FA687B6984
:100DC0001A607B681B697A681269D169BA68D24374
:100DD0000A40DA61FB7C18461C37BD4680BC704770
:100DE00080B588B000AF786039600023FB770023BE
:100DF000BB6100237B6100233B613B685B78012B77
:100E000040F0AB803B681B787A6804339B00134446
:100E10009B681B687B613B681B787A6804339B0086
:100E200013449B681B693B613B685B69002B09D1DC
:100E30003B696FF312033B617B8A012262F3CC03AF
:100E40007B8222E03B685B69C3F312023B6962F379
:100E500012033B613B685A693B689B6813445A1E06
:100E60003B689B68B2FBF3F39BB2C3F309039AB2EE
:100E70007B8A62F3CC037B823B68DB78012B04D155
:100E8000FB7C012262F34613FB743B681B787A6893
:100E900004339B0013449B683A691A617B68DB78D2
:100EA000012B0AD13B681B787A6804339B001344FA
:100EB0009B683A6812695A6115E03B68DB78012B40
:100EC00011D03B685B69002B0DD03B681B781A463C
:100ED00001239340BB617B681B697A681269516B7F
:100EE000BA690A435A633B68DB78012B14D17B68EB
:100EF0001B699B68FB60FB68C3F30D239BB203F087
:100F00000103002B04D1FB7D43F02003FB7503E0BC
:100F1000FB7D43F01003FB75FB7D43F00403FB7581
:100F2000FB7D43F08003FB753B681B787A680433D4
:100F30009B0013449B687A691A603B68DB78012B3D
:100F400040F089803B68D9683B681A783B685B69E8
:100F50009BB27868FFF782F97DE03B681B787A687E
:100F600014339B0013445B681B687B613B681B78F0
:100F70007A6814339B0013445B681B693B613B68D0
:100F80005B69002B0DD13B689B68C3F312023B6980
:100F900062F312033B617B8A012262F3CC037B8202
:100FA00020E03B685A693B689B6813445A1E3B68C3
:100FB0009B68B2FBF3F39BB2C3F309039AB27B8A3B
:100FC00062F3CC037B827B8AC3F3C9039BB21A46CC
:100FD0003B689B6803FB02F3C3F312023B6962F3B5
:100FE00012033B613B681B787A6814339B001344FF
:100FF0005B683A691A617B68DB78012B09D13B6831
:101000001B787A6814339B0013445B683A68126952
:101010005A613B68DB78012B0CD13B685B79002B74
:1010200004D0FB7D43F02003FB7503E0FB7D43F020
:101030001003FB75FB7D43F00403FB75FB7D43F060
:101040008003FB753B681B787A6814339B0013445C
:101050005B687A691A60FB7F18462037BD4680BD01
:1010600080B489B000AF786039600023FB7700233B
:10107000BB6100233B610023BB603B685B78012BB5
:1010800070D17B689B697B617B691B683B617B6975
:101090001B69BB603B685B69002B09D13B7A6FF32E
:1010A00006033B72BB7A012262F3C403BB7223E0E6
:1010B0003B685A693B689B689A420ED93B689A68BC
:1010C0003B685A613B689B68DBB203F07F03DAB28E
:1010D0003B7A62F306033B7209E03B685B69DBB273
:1010E00003F07F03DAB23B7A62F306033B72BB7A0A
:1010F000012262F3C403BB72BA687B691A617B6820
:10110000DB78012B09D13B681B787A6804339B009C
:1011100013449B683A6812695A61FB7C43F00403EC
:10112000FB74FB7C43F08003FB743A697B691A60B3
:101130007B68DB78002B76D13B685B69002B72D033
:101140003B681B781A46012393401A46BB69134338
:10115000BB617B681B697A681269516BBA690A4383
:101160005A6360E03B681B787A6814339B00134431
:101170005B681B683B613B681B787A6814339B0093
:1011800013445B681B69BB603B685B69002B0FD134
:101190003B689B68DBB203F07F03DAB23B7A62F311
:1011A00006033B72BB7A012262F3C403BB7212E0F6
:1011B0003B689A683B685A613B689B68DBB203F006
:1011C0007F03DAB23B7A62F306033B72BB7A0122F9
:1011D00062F3C403BB723B681B787A6814339B00CC
:1011E00013445B68BA681A617B68DB78012B09D10C
:1011F0003B681B787A6814339B0013445B683A6839
:1012000012695A61FB7C43F00403FB74FB7C43F0DE
:101210008003FB743B681B787A6814339B0013448B
:101220005B683A691A60FB7F18462437BD4680BC6C
:10123000704700BF80B487B000AF7860396000238A
:10124000FB750023FB603B685B78012B1CD13B687E
:101250001B787A6804339B0013449B683B613B69AD
:101260001B68FB60FB7B23F07F03DBB2002B03D00A
:10127000FB7B43F04003FB73BB7B43F02003BB735A
:10128000FA683B691A6011E03B681B787A6814338E
:101290009B0013445B683B613B691B68FB60BB7B45
:1012A00043F02003BB73FA683B691A60FB7D184664
:1012B0001C37BD4680BC704780B487B000AF7860F3
:1012C00039600023FB740023FB603B685B78012BD3
:1012D00008D13B681B787A6804339B0013449B68F1
:1012E0007B6107E03B681B787A6814339B001344EA
:1012F0005B687B617B691B68FB60BB7B6FF345139D
:10130000BB733B68DB78032B03D03B68DB78022B95
:1013100003D1FB7B43F01003FB73FA687B691A600F
:10132000FB7C18461C37BD4680BC704780B485B036
:1013300000AF78607B681B699B69FB607B681B69F9
:10134000DB69FA681340FB60FB681B0C1846143716
:10135000BD4680BC704700BF80B485B000AF7860E8
:101360000B46FB70FB787A6814339B0013445B6870
:101370009B68FB607B681B695B69FA681340FB60D4
:10138000FB6818461437BD4680BC704780B485B0F2
:1013900000AF78607B681B699B69FB607B681B6999
:1013A000DB69FA681340FB60FB689BB21846143790
:1013B000BD4680BC704700BF80B487B000AF786086
:1013C00000233B61FB7C43F0C003FB74BB7C012228
:1013D00062F3C403BB743B7C182262F306033B74C4
:1013E0007B685B6D3A691A617B68DB78012B16D1EB
:1013F0000023FB607B685B6D7A6802F5B9625A6115
:101400007B685B6D1B68FB60FB7B43F08003FB73B9
:101410004FF08023FB607B685B6DFA681A6000BF49
:101420001C37BD4680BC704780B483B000AF034614
:101430003960FB7197F90730002B0BDA0D49FB7906
:1014400003F00F03043B3A68D2B21201D2B20B444C
:101450001A7609E0084997F907303A68D2B21201C2
:10146000D2B20B4483F8002300BF0C37BD4680BCCA
:10147000704700BF00ED00E000E100E080B582B001
:1014800000AF78607B68B3F1807F01D3012311E066
:101490000A4A7B6823F07F43013B53600F214FF0E2
:1014A000FF30FFF7C1FF054B00229A60034B072274
:1014B0001A60002318460837BD4680BD10E000E0E2
:1014C00080B582B000AF786003F058F8054B1A6819
:1014D0007B68B2FBF3F31846FFF7D0FF00BF083775
:1014E000BD4680BDB800002080B483B000AF7860F6
:1014F000064A7B68136000BF044B1B68002BFBD1BE
:1015000000BF0C37BD4680BC704700BFC001002043
:1015100080B400AF044B1B68013B034A136000BF5B
:10152000BD4680BC704700BFC001002080B582B0BE
:1015300002AF074B01221A70064B0093064B074A75
:101540000121074801F040FA00BFBD4680BD00BF41
:10155000C401002000000020140100205C000020D5
:10156000C801002080B400AF024B1B781846BD466E
:1015700080BC7047C401002080B584B000AF7860A3
:10158000104B1B78022B01D0002316E0786802F084
:1015900057FF0346BB81BB89002B0DD10023FB7392
:1015A00005E07B6800221A70FB7B0133FB73FB7B39
:1015B000272BF6D9012300E0022318461037BD4639
:1015C00080BD00BFC401002080B400AF0B4A0B4BAC
:1015D0005B6923F47C6323F00C035361084A084BD6
:1015E0005B6923F007035361064A064B5B6923F0EE
:1015F0000803536100BFBD4680BC7047001C024019
:10160000000802400018024080B500AFA549A64876
:1016100005F06AFA0346002B09D1FFF7D5FFA34A6C
:10162000A24B5B6943F480735361012338E1A04905
:101630009D4805F059FA0346002B09D1FFF7C4FF76
:101640009A4A9A4B5B6943F080035361022327E176
:101650009849954805F048FA0346002B09D1FFF751
:10166000B3FF924A914B5B6943F0400353610323FC
:1016700016E191498C4805F037FA0346002B09D151
:10168000FFF7A2FF894A894B5B6943F400735361FA
:10169000042305E18949844805F026FA0346002B16
:1016A00009D1FFF791FF814A804B5B6943F4806366
:1016B00053610523F4E082497B4805F015FA03469F
:1016C000002B09D1FFF780FF784A784B5B6943F024
:1016D000080353610623E3E07A49734805F004FAEE
:1016E0000346002B09D1FFF76FFF774A764B5B6902
:1016F00043F0040353610723D2E074496A4805F0BC
:10170000F3F90346002B33D1FFF75EFF704A704BAD
:101710005B6943F0020353614FF4FA60FFF7E4FEA4
:101720006B4A6B4B5B6923F002035361684A684B59
:101730005B6943F0040353614FF4FA60FFF7D4FE92
:10174000634A634B5B6923F004035361604A604B57
:101750005B6943F0010353614FF4FA60FFF7C4FE85
:101760005B4A5B4B5B6923F001035361082397E0FD
:1017700058494D4805F0B8F90346002B09D1FFF749
:1017800023FF4A4A494B5B6943F4006353610923D1
:1017900086E05149444805F0A7F90346002B09D1DA
:1017A000FFF712FF484A484B5B6943F00803536157
:1017B0000A2375E049493C4805F096F90346002B99
:1017C00065D1474A464B5B6943F010035361444A75
:1017D000434B5B6943F4806353611420FFF784FE3D
:1017E0003F4B1B6903F01003002B4AD03C4B1B6995
:1017F00003F48063002B44D00F213A4802F082FEAC
:101800000E21394802F07EFEFA20FFF76DFEFFF749
:10181000DBFE2D4A2C4B5B6943F0040353610A2124
:10182000324802F06FFEFA20FFF75EFE304A304B7E
:101830005B6943F4006353612D4A2D4B5B6943F4AC
:10184000805353611420FFF74FFE294B1B6903F4AB
:101850000063002B10D0264B1B6903F48053002B30
:101860000AD00C21234802F04DFE1121224802F03B
:1018700049FE00F0BBFC08E00621204802F042FED1
:1018800003E006211D4802F03DFE0B2308E0FFF7B0
:101890009BFE0D4A0C4B5B6923F00403536100234C
:1018A000184680BDA4730008B8070020001C024041
:1018B000AC730008B4730008BC730008C47300085C
:1018C000D0730008E073000800180240E8730008B5
:1018D00000080240F473000800740008087400084F
:1018E00000040240107400082074000830740008DE
:1018F000001402403C7400084C7400086074000836
:1019000080B400AF034B01221A7000BFBD4680BCFB
:10191000704700BFC401002080B483B000AF03460D
:10192000FB71044B01221A7000BF0C37BD4680BC0E
:10193000704700BFC401002080B400AF034B0222F7
:101940001A7000BFBD4680BC704700BFC4010020B4
:1019500080B400AF034B01221A7000BFBD4680BCAB
:10196000704700BFC401002080B400AF034B0122C8
:101970001A7000BFBD4680BC704700BFC401002084
:1019800080B400AF034B01221A7000BFBD4680BC7B
:10199000704700BFC401002080B400AF034B012298
:1019A0001A7000BFBD4680BC704700BFC401002054
:1019B00080B483B000AF0346FB71084997F9073044
:1019C0005B09FA7902F01F02012000FA02F241F8E5
:1019D000232000BF0C37BD4680BC704700E100E00B
:1019E00080B483B000AF0346FB71094997F9073013
:1019F0005B09FA7902F01F02012000FA02F220339B
:101A000041F8232000BF0C37BD4680BC704700BFA3
:101A100000E100E080B400AF0D4B00221A700BE033
:101A20000B4B1B781A460B4B00219954084B1B7823
:101A30000133DAB2064B1A70054B1B784F2BEFD9E6
:101A4000034B00221A7000BFBD4680BC704700BF28
:101A5000290C00204001002080B500AF00F03EF8C6
:101A600000F01AF800F05EF800F07EF800F0B0F830
:101A700000F0D2F800F010F900F04EF900F0C6F9CD
:101A800000F0E8F900F01CFA00F094FA00F062FCB3
:101A900000F0B4FC00BF80BD80B582B000AF012172
:101AA000102002F049F904233B6001233B7103231A
:101AB0007B710023BB710223FB713B46194606482C
:101AC00002F0AEFA044A044B5B6923F0040353614D
:101AD00000BF0837BD4680BD0010024080B582B00F
:101AE00000AF0121202002F027F94FF4C0533B60E2
:101AF00001233B7103237B710023BB710223FB7124
:101B00003B461946064802F08BFA054A044B5B69CE
:101B100023F4C053536100BF0837BD4680BD00BFEA
:101B20000014024080B582B000AF0121082002F00D
:101B300003F901233B6001233B7103237B710023E5
:101B4000BB710223FB713B461946064802F068FA56
:101B5000044A044B5B6923F00103536100BF08375B
:101B6000BD4680BD000C024080B584B000AF0121AD
:101B7000102002F0E1F84FF68073BB6000233B7346
:101B800003237B730023BB730023FB7307F108035C
:101B900019460D4802F044FA0121022002F0CCF867
:101BA0004FF470433B6000233B7103237B710023A0
:101BB000BB710023FB713B461946044802F030FA22
:101BC00000BF1037BD4680BD001002400004024037
:101BD00080B582B000AF0121082002F0ADF84FF4CB
:101BE000FC433B6001233B7103237B710023BB71EA
:101BF0000223FB713B461946064802F011FA054ADA
:101C0000044B5B6923F4FC43536100BF0837BD46B6
:101C100080BD00BF000C024080B584B000AF012140
:101C2000082002F089F8FE23BB6001233B730323E5
:101C30007B730023BB730223FB7307F10803194670
:101C4000134802F0EDF9124A114B5B6923F0FE03D1
:101C500053610121402002F06FF84FF460633B6054
:101C600001233B7103237B710023BB710223FB71B2
:101C70003B461946074802F0D3F9064A054B5B6913
:101C800023F46063536100BF1037BD4680BD00BFC1
:101C9000000C02400018024080B584B000AF012162
:101CA000402002F049F84FF47043BB6001233B73BE
:101CB00003237B730023BB730223FB7307F1080329
:101CC0001946134802F0ACF9114A114B5B6923F431
:101CD000704353610121022002F02EF808233B607B
:101CE00001233B7103237B710023BB710223FB7132
:101CF0003B461946074802F093F9064A054B5B69D3
:101D000023F00803536100BF1037BD4680BD00BFFC
:101D1000001802400004024080B588B000AF0121E5
:101D2000802002F009F840F6CC73BB6101233B77B9
:101D300003237B770023BB770223FB7707F118038C
:101D400019462E4802F06CF92C4A2C4B5B6923F49F
:101D50007C6323F00C0353610121042001F0ECFFAC
:101D600007233B6101233B7503237B750023BB7570
:101D70000223FB7507F110031946214802F050F9C0
:101D80001F4A1F4B5B6923F00703536101210220A7
:101D900001F0D2FF4FF48063BB6001233B73032348
:101DA0007B730023BB730223FB7307F108031946FF
:101DB000144802F035F9134A124B5B6923F480632F
:101DC00053610121402001F0B7FF0C233B60012348
:101DD0003B7103237B710023BB710223FB713B46E4
:101DE0001946094802F01CF9074A074B5B6923F0C2
:101DF0000C03536100BF2037BD4680BD001C02406C
:101E000000080240000402400018024080B582B081
:101E100000AF0121022001F08FFF4FF482633B608D
:101E200001233B7103237B710023BB710223FB71F0
:101E30003B461946064802F0F3F8054A044B5B6935
:101E400023F48263536100BF0837BD4680BD00BFE5
:101E50000004024080B584B000AF01214FF48070CF
:101E600001F06AFF4FF47063BB6000233B730323F0
:101E70007B730023BB730223FB7307F1080319462E
:101E80000D4802F0CDF80121042001F055FF46F283
:101E900038033B6000233B7103237B710023BB713C
:101EA0000223FB713B461946044802F0B9F800BF13
:101EB0001037BD4680BD00BF002002400008024030
:101EC00080B588B000AF0121802001F035FF3023BC
:101ED000BB6101233B7703237B770023BB7702237E
:101EE000FB7707F118031946284802F099F8274AAA
:101EF000264B5B6923F0300353610121402001F040
:101F00001BFF4FF4D0733B6101233B7503237B75AB
:101F10000023BB750223FB7507F1100319461C480B
:101F200002F07EF81A4A1A4B5B6923F4D0735361AE
:101F30000121202001F000FF4923BB6001233B73F6
:101F400003237B730023BB730223FB7307F1080396
:101F50001946104802F064F80E4A0E4B5B6923F0F4
:101F6000490353614FF4DB733B6000233B71032350
:101F70007B710023BB710023FB713B46194605486A
:101F800002F04EF800BF2037BD4680BD001C024065
:101F9000001802400014024080B400AF044A044B11
:101FA0005B6943F04903536100BFBD4680BC704785
:101FB0000014024080B584B000AF0121202001F060
:101FC000BBFE4FF40053BB6001233B7303237B73C1
:101FD0000023BB730223FB7307F108031946134860
:101FE00002F01EF8114A114B5B6923F40053536150
:101FF0000121802001F0A0FE08233B6001233B71FA
:1020000003237B710023BB710223FB713B461946FE
:10201000074802F005F8064A054B5B6923F0080300
:10202000536100BF1037BD4680BD00BF00140240A1
:10203000001C024080B582B000AF0023FB7137481E
:1020400000F074FA00F0FCF9354B05221A70FFF726
:10205000E1FC344B1B889BB203F02003002B2AD0F9
:10206000314B01221A702F4B9B889BB2DAB22F4B57
:102070001A702F4B1B781A462C4B19782D4B9954FC
:102080002B4B1B78002B10D0294B1B78013B294A86
:10209000D35C0D2B09D1264B1B781A46254B9B5C34
:1020A0000A2B02D10123FB7109E0214B1B7801337C
:1020B000DAB21F4B1A701A4B1B78002BC9D100F0F3
:1020C000CDF9FB79002B21D013211B4802F01AFA1D
:1020D000FFF7A0FC4FF47A70FFF706FA174800F0FC
:1020E00025FA00F0E1F91649124804F0FDFC034618
:1020F000002B04D11721134802F004FA03E01B213E
:10210000114802F0FFF9FFF785FC03E011210F48A9
:1021100002F0F8F900BF0837BD4680BD78740008AA
:10212000E40900200014014090010020280C002048
:10213000290C0020400100208074000894740008DD
:10214000A0740008AC740008C4740008E0740008AF
:1021500080B582B000AF0023FB71FFF75BFC00F09D
:10216000A3F91C491C4804F0BFFC0346002B06D110
:10217000FFF750FC0123FB71184B00221A70174B1C
:102180001B78002B21D01649134804F073FF034637
:10219000002B0DD0134B1B7819460F4802F0B2F9F3
:1021A000FFF738FC0123FB710C4B00221A700CE086
:1021B0000D49094804F05EFF0346002B05D0094B8A
:1021C0001B781946044802F09DF9FB791846083738
:1021D000BD4680BDF474000840010020900100203D
:1021E000FC740008290C00201075000880B584B02C
:1021F00000AF514A504B5B6923F0080353613B46E3
:1022000000221A605A601A810123FB730023BB73FA
:1022100009E0BB7B07F1100213444E2203F8102C97
:10222000BB7B0133BB73BB7B092BF2D900F008F9F0
:10223000424B0F221A7057E0414B1B6903F40053C5
:10224000002B01D059233B703D4B1B6903F4805395
:10225000002B01D059237B70394B1B6903F40063B9
:10226000002B01D05923BB70354B1B6903F48063ED
:10227000002B01D05923FB70314B1B6903F4007311
:10228000002B01D059233B712E4B1B6903F4804373
:10229000002B01D059237B712A4B1B6903F4005397
:1022A000002B01D05923BB71254B1B6903F48043DC
:1022B000002B01D05923FB71FB7B002B09D0214B54
:1022C0001B6903F40043002B03D059233B72002306
:1022D000FB73FB7B002B07D11A4B1B6903F40043F4
:1022E000002B01D159237B72144B1B78002BA3D1F7
:1022F00000F0B4F80A21144802F004F900237B73BB
:1023000013E00121114802F0FDF87B7B07F1100278
:10231000134413F8103C184602F0E6F802210C486A
:1023200002F0F0F87B7B01337B737B7B092BE8D9D0
:1023300000BF1037BD4680BD001C0240E4090020EC
:10234000001002400004024028750008347500089F
:102350003875000880B586B000AF0121202001F05B
:1023600045FD0121042001F0E7FC40233B610223ED
:102370003B7503237B750023BB750123FB7507F1B8
:10238000100319461B4801F04BFE80233B610223DA
:102390003B7503237B750023BB750123FB7507F198
:1023A00010031946134801F03BFE0822062111488C
:1023B00001F0C4FE082207210E4801F0BFFE4FF4D1
:1023C00016533B600023BB800023FB8000233B812E
:1023D0000023BB810C237B813B461946064800F055
:1023E000E7F90121044800F09DFA00BF1837BD4607
:1023F00080BD00BF000802400014014080B584B0D9
:1024000000AF0121102001F0D3FC3B1D184604F061
:1024100063FA4AF20F43BB804FF4FA63BB603B1D83
:102420001946064804F0EEF901220121034804F0A0
:102430008DFA00BF1037BD4680BD00BF00100040C0
:1024400080B500AF0121044804F060FA3620FFF7A0
:10245000AFFA00BF80BD00BF0010004080B500AFE4
:102460000021044804F052FA3620FFF7B9FA00BF01
:1024700080BD00BF0010004080B483B000AF0346B1
:10248000FB7100BF074B1B889BB203F04003002B7E
:10249000F8D0044BFA7992B29A8000BF0C37BD464F
:1024A00080BC70470014014080B500AFFFF7B2FA5E
:1024B000194B1B889BB203F02003002BF8D0174B5D
:1024C00001221A70144B9B889BB2DAB2144B1A701B
:1024D000144B1B781A46124B1978134B9954114B15
:1024E0001B78002B0DD00F4B1B78013B0E4AD35CA1
:1024F0000D2B06D10B4B1B781A460B4B9B5C0A2B02
:1025000006D0084B1B780133DAB2064B1A70CFE7BE
:1025100000BF00BF80BD00BF00140140900100203B
:10252000280C0020290C00204001002080B584B038
:1025300000AF78600023FB7309E0FB7B7A681344EB
:102540001B781846FFF798FFFB7B0133FB73FB7B7F
:102550007A6813441B78002BEFD100BF1037BD46BB
:1025600080BD00BF80B400AF0A4A0A4B5B6923F00C
:1025700010035361084A084B5B6923F0A0035361C1
:10258000064A064B5B6923F04903536100BFBD4611
:1025900080BC7047001C024000180240001402403A
:1025A00080B500AF7349744804F09EFA0346002BCF
:1025B00009D1FFF7D7FF714A704B5B6943F02003E5
:1025C00053610123D4E06E496B4804F08DFA034651
:1025D000002B09D1FFF7C6FF6A4A6A4B5B6943F0DB
:1025E000100353610323C3E06749634804F07CFA96
:1025F0000346002B4DD1FFF7B5FFFFF7CDFCFA20C6
:10260000FEF772FF614B1B6903F00203002B0AD037
:102610005E4B1B6903F00403002B08D10A215C48C0
:1026200001F070FF03E00A215A4801F06BFF3220ED
:10263000FEF75AFF554B1B6903F01003002B0AD01D
:10264000524B1B6903F02003002B08D10A2152488A
:1026500001F058FF03E00A21504801F053FF3220F7
:10266000FEF742FF494B1B6903F08003002B0AD0A1
:10267000464B1B6903F48073002B08D10C2148489A
:1026800001F040FF03E00C21464801F03BFF04232A
:102690006EE04549384804F027FA0346002B4DD137
:1026A000FFF760FFFFF778FCFA20FEF71DFF374BBE
:1026B0001B6903F00403002B0AD0344B1B6903F0A1
:1026C0000203002B08D10A21314801F01BFF03E06F
:1026D0000A21304801F016FF3220FEF705FF2B4B90
:1026E0001B6903F02003002B0AD0284B1B6903F061
:1026F0001003002B08D10A21274801F003FF03E053
:102700000A21264801F0FEFE3220FEF7EDFE1F4BA7
:102710001B6903F48073002B0AD01C4B1B6903F068
:102720008003002B08D10C211D4801F0EBFE03E0D3
:102730000C211C4801F0E6FE052319E01B490E4858
:1027400004F0D2F90346002B09D1FFF70BFF0D4A25
:102750000C4B5B6943F020035361062308E0FFF74D
:1027600001FF084A074B5B6923F0200353610023F4
:10277000184680BD3C750008B807002000180240CC
:1027800044750008001C02404C750008001402400B
:102790005875000864750008707500087C7500089D
:1027A0008875000898750008A8750008B4750008B9
:1027B00080B58AB000AF7860396000237B62002367
:1027C0003B620023FB610023BB617B681B8A9BB2D9
:1027D0007B627B6A23F440537B623B68DB881A464A
:1027E0007B6A13437B627B6A9AB27B681A827B683E
:1027F0009B899BB27B627B6A23F4B05323F00C036A
:102800007B623B689A883B681B8913439AB23B689A
:102810005B8913439BB21A467B6A13437B627B6AD4
:102820009AB27B689A817B689B8A9BB27B627B6A47
:1028300023F440737B623B689B891A467B6A13438F
:102840007B627B6A9AB27B689A8207F1080318461A
:1028500001F0C8F97B68304A934203D07B682F4A65
:10286000934202D17B693B6201E03B693B627B683A
:102870009B899BB21BB2002B0CDA3A6A13469B0071
:1028800013449A001A443B681B685B00B2FBF3F3E5
:10289000FB610BE03A6A13469B0013449A001A440A
:1028A0003B681B689B00B2FBF3F3FB61FB691C4AAE
:1028B000A2FB03235B091B017B627B6A1B09642269
:1028C00002FB03F3FA69D31ABB617B689B899BB255
:1028D0001BB2002B0CDABB69DB003233104AA2FBBF
:1028E00003235B0903F007037A6A13437B620BE05F
:1028F000BB691B0132330A4AA2FB03235B0903F0C5
:102900000F037A6A13437B627B6A9AB27B681A81EF
:1029100000BF2837BD4680BD0010014000140140B3
:102920001F85EB5180B483B000AF78600B46FB701D
:10293000FB78002B08D07B689B899BB243F4005343
:102940009AB27B689A8107E07B689B899BB223F4EB
:1029500000539AB27B689A8100BF0C37BD4680BC99
:10296000704700BF80B582B000AF104B7B60104B4A
:102970003B6007E03B681A1D3A607A68111D796078
:1029800012681A603B680B4A9342F3D30A480B491A
:102990004FF000028842B8BF40F8042BFADB00F089
:1029A0004DFA00BF0837BD4680BD00BF127A00084F
:1029B0000000002040010020400100208818002075
:1029C00080B400AFFEE700BF80B584B000AFF86010
:1029D0007A603B600B46FB72F86801F0C5FEF86850
:1029E00000F01EF8FB683A68C3F8E025FB68BA6996
:1029F000C3F8E425FB687A68C3F8E825FB7A194632
:102A0000F86803F041FCFB68D3F8E4351B6898478D
:102A1000F86801F0F9FE00BF1037BD4680BD00BF69
:102A200080B483B000AF7860002318460C37BD46F1
:102A300080BC704780B584B000AF786007F10803B0
:102A40001946786802F008FB3B7A03F01F03012B5C
:102A50000AD0022B0FD0002B14D107F1080319461E
:102A6000786801F029FF16E007F108031946786835
:102A700001F072FF0FE007F108031946786801F0D2
:102A80009FFF08E03B7A23F07F03DBB219467868AA
:102A900003F08AFD00BF002318461037BD4680BDF5
:102AA00080B584B000AF78600B46FB70FB78002BDC
:102AB00044D17B6803F55C73FB607B6893F811314C
:102AC000032B4ED1FB68DA69FB689B689A4220D9D8
:102AD000FB68DA69FB689B68D21AFB68DA617B687D
:102AE000DB78012B06D1FB68DA68FB689B681A4427
:102AF000FB68DA60FB68D968FB689A68FB68DB6989
:102B0000934228BF13469BB21A46786803F036FEFC
:102B100027E07B68D3F8E0351B69002B0AD07B687F
:102B200093F81231032B05D17B68D3F8E0351B698C
:102B300078689847786803F035FE12E07B68D3F830
:102B4000E0359B69002B0CD07B6893F81231032B86
:102B500007D17B68D3F8E0359B69FA78114678682D
:102B60009847002318461037BD4680BD80B584B015
:102B700000AF78600B46FB70FB78002B5FD17B6861
:102B800003F58C73FB607B6893F81131022B69D1DC
:102B9000FB68DA69FB689B689A421BD9FB68DA69B3
:102BA000FB689B68D21AFB68DA617B68DB78012BD3
:102BB00006D1FB68DA68FB689B681A44FB68DA6038
:102BC000FB68D968FB68DB699BB21A46786803F03A
:102BD000A1FD47E0FB681B6AFA689268B3FBF2F15B
:102BE00002FB01F29B1A002B14D1FB681A6AFB68E6
:102BF0009B689A420ED3FB681A6AFB685B6A9A422A
:102C000008D200220021786803F084FDFB680022CE
:102C10005A6227E07B68D3F8E035DB68002B0AD0E6
:102C20007B6893F81231032B05D17B68D3F8E0352C
:102C3000DB6878689847786803F0CCFD12E07B6821
:102C4000D3F8E0355B69002B0CD07B6893F8123128
:102C5000032B07D17B68D3F8E0355B69FA7811461E
:102C600078689847002318461037BD4680BD00BFDE
:102C700080B582B000AF78600023402200217868E0
:102C800003F084FB002340228021786803F07EFB60
:102C90007B68012283F812217B68D3F8E4355B68F6
:102CA0007A68927810469847002318460837BD4640
:102CB00080BD00BF80B582B000AF78607B68D3F87C
:102CC000E4351B6998477B68032283F812210023AF
:102CD00018460837BD4680BD80B582B000AF786029
:102CE0007B68042283F812217B68D3F8E435DB6823
:102CF0009847002318460837BD4680BD80B582B08E
:102D000000AF78607B68D3F8E035DB69002B05D035
:102D10007B68D3F8E035DB6978689847002318466C
:102D20000837BD4680BD00BF80B582B000AF786077
:102D30000B46FB707B68D3F8E0351B68FA781146C8
:102D4000786898477B68D3F8E4359B6898470023F8
:102D500018460837BD4680BD80B582B000AF7860A8
:102D60000B46FB707B68D3F8E0355B68FA78114658
:102D700078689847002318460837BD4680BD00BFD5
:102D800080B582B000AF78607B68D3F8E0351B6A0D
:102D900078689847002318460837BD4680BD00BFB5
:102DA00080B582B000AF78607B68D3F8E0355B6AAD
:102DB00078689847002318460837BD4680BD00BF95
:102DC00080B582B000AF78607B68D3F8E4355B698A
:102DD0009847002318460837BD4680BD80B582B0AD
:102DE00000AF78607B68D3F8E4359B6998477B68CF
:102DF000D3F8E0355B6800217868984700231846CF
:102E00000837BD4680BD00BF80B500AF012109482D
:102E100003F0C0FD0346002B09D0074B1B78013B94
:102E2000DAB2054B1A700121024803F0DDFD00BF44
:102E300080BD00BF00100040E409002080B500AF55
:102E4000A74B01221A7001F06BFBFEF705FE4FF451
:102E50007A70FEF735FB4FF4FA60FEF745FBA14AA6
:102E6000A04B5B6943F001035361FEF75FFBFEF784
:102E700079FB0346022BFAD19B48FEF77DFB034604
:102E80001A46974B1A70964B1B78022BEFD1974935
:102E9000954803F029FE0346002B40F0D6800C2114
:102EA000934801F02FFB934B01221A708E48FEF7D6
:102EB00063FB03461A468A4B1A70894B1B78022B18
:102EC00040F0AB808C49884803F00EFE0346002B8F
:102ED00028D18A4A894B5B6943F010035361874AC2
:102EE000864B5B6943F4806353611420FEF7FCFA60
:102EF000824B1B6903F01003002B0ED07F4B1B6924
:102F000003F48063002B08D00F217D4801F0FAFA0A
:102F10000E217C4801F0F6FA7FE006217A4801F0A4
:102F2000F1FA7AE07949704803F0DEFD0346002BA0
:102F300028D1724A714B5B6923F0100353616F4AC9
:102F40006E4B5B6923F4806353611420FEF7CCFA67
:102F50006A4B1B6903F01003002B0ED1674B1B69F2
:102F600003F48063002B08D11021694801F0CAFAEC
:102F70000F21684801F0C6FA4FE00621624801F0CF
:102F8000C1FA4AE06449584803F0AEFD0346002BFD
:102F900018D1624A614B5B6943F4006353611420AA
:102FA000FEF7A2FA5D4B1B6903F40063002B04D00B
:102FB0000C215B4801F0A6FA2FE00621524801F0EF
:102FC000A1FA2AE05749484803F08EFD0346002B3A
:102FD00018D1524A514B5B6923F4006353611420AA
:102FE000FEF782FA4D4B1B6903F40063002B04D1FA
:102FF0000D214D4801F086FA0FE00621424801F00C
:1030000081FA0AE000F05AFB03461A46394B1A705F
:10301000384B1B78184601F067FA364B1B78002BAB
:103020007FF444AF3D4A3D4B5B6923F40063536139
:10303000324A324B5B6923F0100353612F4A2F4B06
:103040005B6923F48063536111E73849264803F034
:103050004BFD0346002B40F0BE800D21344801F0AB
:1030600051FA244B01221A701F48FEF785FA0346D5
:103070001A461B4B1A701A4B1B78022B40F0998092
:103080002C49194803F030FD0346002B56D1234A42
:10309000224B5B6943F400635361204A1F4B5B6919
:1030A00043F4805353611420FEF71EFA1B4B1B6937
:1030B00003F40063002B0ED0184B1B6903F48053FC
:1030C000002B08D00C21164801F01CFA11211A48D7
:1030D00001F018FA6DE006210B4801F013FA68E0E0
:1030E000E0070020000C0240B8070020C07500086F
:1030F000CC750008E80B0020DC75000800040240D5
:10310000EC750008FC7500080C76000814760008C1
:10311000247600083876000848760008001402403B
:1031200058760008687600087876000888760008E7
:1031300094760008A4760008B4760008944995486F
:1031400003F0D2FC0346002B28D1934A924B5B69D3
:1031500023F400635361904A8F4B5B6923F48053DF
:1031600053611420FEF7C0F98B4B1B6903F4006315
:10317000002B0ED1884B1B6903F48053002B08D120
:103180000D21864801F0BEF91221854801F0BAF9F7
:103190000FE00621834801F0B5F90AE0FFF700FAD5
:1031A00003461A46804B1A707F4B1B78184601F075
:1031B0009BF97D4B1B78002B7FF456AF764A764BFC
:1031C0005B6923F400635361734A734B5B6923F4B7
:1031D000805353614BE675496E4803F085FC034606
:1031E000002B40F0FF800C21714801F08BF96E4BF1
:1031F00001221A706748FEF7BFF903461A466D4B65
:103200001A706C4B1B78022B40F09D806A49614814
:1032100003F06AFC0346002B2AD15F4A5E4B5B69D0
:1032200043F4006353615C4A5B4B5B6943F4805336
:1032300053611420FEF758F9574B1B6903F40063E0
:10324000002B10D0544B1B6903F48053002B0AD081
:103250000C215A4801F056F91121594801F052F950
:10326000FEF7C4FF6FE006214E4801F04BF96AE01B
:103270005449484803F038FC0346002B28D1524AF1
:10328000514B5B6943F0100353614F4A4E4B5B69EE
:1032900043F4806353611420FEF726F94A4B1B69FF
:1032A00003F01003002B0ED0474B1B6903F480631F
:1032B000002B08D00F21454801F024F90E21444885
:1032C00001F020F93FE00621364801F01BF93AE011
:1032D0004049304803F008FC0346002B08D13E4A21
:1032E0003D4B5B6943F004035361FEF7A3FE2AE004
:1032F0003A49284803F0F8FB0346002B18D1364A18
:10330000354B5B6923F0040353611420FEF7ECF89E
:10331000314B1B6903F00403002B04D10E2130480C
:1033200001F0F0F80FE006211E4801F0EBF80AE08A
:1033300000F0A6FD03461A461B4B1A701A4B1B7869
:10334000184601F0D1F8184B1B78002B7FF452AFD0
:10335000114A114B5B6923F4006353610E4A0E4B13
:103360005B6923F480535361174A174B5B6923F061
:1033700010035361144A144B5B6923F48063536157
:10338000154A154B5B6923F0040353616FE500BFD9
:10339000C8760008B80700200014024078760008BC
:1033A000D87600080C760008E80B0020EC760008C0
:1033B000F8760008E0070020087700085876000833
:1033C000B4760008DC75000800040240EC750008C3
:1033D000FC750008187700080010024020770008EC
:1033E000287700088A498B4803F07EFB0346002BB0
:1033F00040F0FC800C21884801F084F8874B0122C2
:103400001A708448FEF7B8F803461A46844B1A70BF
:10341000834B1B78022B40F0CB8082497D4803F020
:1034200063FB0346002B28D17F4A7F4B5B6943F443
:10343000006353617C4A7C4B5B6943F48053536166
:103440001420FEF751F8784B1B6903F40063002B3E
:103450000ED0754B1B6903F48053002B08D00C2150
:10346000724801F04FF81121714801F04BF89FE0CC
:103470000621704801F046F89AE06F49654803F06C
:1034800033FB0346002B28D1674A674B5B6923F463
:1034900000635361644A644B5B6923F48053536156
:1034A0001420FEF721F8604B1B6903F40063002B26
:1034B0000ED15D4B1B6903F48053002B08D10D2105
:1034C0005E4801F01FF812215D4801F01BF86FE023
:1034D0000621584801F016F86AE05A494D4803F0B1
:1034E00003FB0346002B28D1574A574B5B6943F037
:1034F00010035361544A544B5B6943F48063536136
:103500001420FDF7F1FF504B1B6903F01003002B53
:103510000ED04D4B1B6903F48063002B08D00F21A4
:103520004A4800F0EFFF0E21494800F0EBFF3FE072
:103530000621404800F0E6FF3AE04649354803F0EE
:10354000D3FA0346002B28D13F4A3F4B5B6923F057
:10355000100353613C4A3C4B5B6923F48063536125
:103560001420FDF7C1FF384B1B6903F01003002B3B
:103570000ED1354B1B6903F48063002B08D1102159
:10358000354800F0BFFF0F21344800F0BBFF0FE0CB
:103590000621284800F0B6FF0AE0FEF735F803469A
:1035A0001A461E4B1A701D4B1B78184600F09CFFE4
:1035B0001A4B1B78002B7FF424AF1B4A1A4B5B6914
:1035C00023F400635361184A174B5B6923F480535B
:1035D00053611D4A1C4B5B6923F0100353611A4A67
:1035E000194B5B6923F48063536140E41C4909482B
:1035F00003F07AFA0346002B04D11E21194800F08B
:1036000081FF34E40C21184800F07CFF2FE400BF58
:1036100038770008B807002044770008E80B00203E
:10362000E007002054770008001402405876000894
:10363000B47600080C7600086477000878760008F5
:10364000D8760008DC75000800040240EC7500081C
:10365000FC75000814760008247600083876000807
:10366000747700087C7700089C77000880B400AF6E
:103670000E4A0E4B5B6923F4FD4323F07E03536136
:103680000B4A0B4B5B6923F47E435361094A094B98
:103690005B6923F008035361074A074B5B6923F416
:1036A0008053536100BFBD4680BC7047000C024090
:1036B00000180240000402400014024080B500AF30
:1036C000A249A34803F010FA0346002B0FD1FFF7DD
:1036D000CDFFA04A9F4B5B6943F4805353619E4AE0
:1036E0009D4B5B6943F400735361012356E29B4990
:1036F000974803F0F9F90346002B09D1FFF7B6FF0D
:10370000954A954B5B6943F480635361022345E21C
:1037100093498F4803F0E8F90346002B09D1FFF7DE
:10372000A5FF8D4A8C4B5B6943F40063536103230F
:1037300034E28C49864803F0D7F90346002B09D1BF
:10374000FFF794FF844A844B5B6943F480535361D1
:10375000042323E284497E4803F0C6F90346002B84
:1037600009D1FFF783FF7C4A7B4B5B6943F400532D
:103770005361052312E27D49754803F0B5F903460C
:10378000002B09D1FFF772FF734A734B5B6943F457
:1037900080435361062301E275496D4803F0A4F9A3
:1037A0000346002B09D1FFF761FF6B4A6A4B5B6947
:1037B00043F0020353610723F0E16E49644803F0CC
:1037C00093F90346002B0FD1FFF750FF624A624B7B
:1037D0005B6943F0020353615F4A5F4B5B6943F0EF
:1037E000040353610823D9E16349594803F07CF984
:1037F0000346002B09D1FFF739FF574A564B5B6947
:1038000043F0080353610923C8E15C49504803F0C1
:103810006BF90346002B0FD1FFF728FF4E4A4E4BA2
:103820005B6943F0080353614B4A4B4B5B6943F0C0
:10383000100353610A23B1E15149454803F054F99B
:103840000346002B09D1FFF711FF434A424B5B6946
:1038500043F0200353610B23A0E14A493C4803F0A5
:1038600043F90346002B0FD1FFF700FF3A4A3A4BCA
:103870005B6943F020035361374A374B5B6943F080
:10388000400353610C2389E13F49314803F02CF98F
:103890000346002B09D1FFF7E9FE2F4A2E4B5B6947
:1038A00043F0800353610D2378E13849284803F041
:1038B0001BF90346002B0FD1FFF7D8FE264A264BF3
:1038C0005B6943F080035361314A314B5B6943F4D8
:1038D000007353610E2361E12E491D4803F004F982
:1038E0000346002B09D1FFF7C1FE294A284B5B692B
:1038F00043F4806353610F2350E12749144803F0D8
:10390000F3F80346002B0FD1FFF7B0FE204A204BFF
:103910005B6943F4806353611D4A1D4B5B6943F44B
:1039200000635361102339E11C49094803F0DCF8B6
:103930000346002B34D1FFF799FE074A064B5B691B
:1039400043F002035361112328E100BFAC77000864
:10395000B807002000140240000C0240B8770008AD
:10396000C4770008D0770008E0770008F0770008F7
:103970000078000814780008287800083C780008CF
:103980005078000864780008787800088C7800087F
:1039900000180240A0780008B4780008C878000831
:1039A0007F49804803F0A0F80346002B0FD1FFF7B2
:1039B0005DFE7D4A7C4B5B6943F0020353617A4AAA
:1039C000794B5B6943F0040353611223E6E07749C6
:1039D000744803F089F80346002B09D1FFF746FE2F
:1039E000714A714B5B6943F0080353611323D5E0BF
:1039F0006F496C4803F078F80346002B0FD1FFF7AE
:103A000035FE694A684B5B6943F008035361664AB7
:103A1000654B5B6943F0100353611423BEE06549B5
:103A2000604803F061F80346002B09D1FFF71EFE42
:103A30005D4A5D4B5B6943F0200353611523ADE0A4
:103A40005D49584803F050F80346002B0FD1FFF7AB
:103A50000DFE554A544B5B6943F020035361524AB3
:103A6000514B5B6943F040035361162396E0534981
:103A70004C4803F039F80346002B09D1FFF7F6FD57
:103A8000494A494B5B6943F080035361172385E042
:103A90004B49444803F028F80346002B0FD1FFF7A9
:103AA000E5FD414A404B5B6943F080035361454A61
:103AB000444B5B6943F40073536118236EE0424941
:103AC000384803F011F80346002B09D1FFF7CEFD6B
:103AD0003C4A3C4B5B6943F48063536119235DE0CE
:103AE0003A49304803F000F80346002B0FD1FFF7A6
:103AF000BDFD344A334B5B6943F480635361314A03
:103B0000304B5B6943F4006353611A2346E030494C
:103B1000244802F0E9FF0346002B09D1FFF7A6FD78
:103B2000284A284B5B6943F4805353611B2335E0DB
:103B300028491C4802F0D8FF0346002B09D1FFF7A3
:103B400095FD204A1F4B5B6943F4804353611D235D
:103B500024E02149134802F0C7FF0346002B09D196
:103B6000FFF784FD174A174B5B6943F40043536129
:103B70001E2313E019490B4802F0B6FF0346002B41
:103B800009D1FFF773FD164A154B5B6943F0080333
:103B900053611F2302E0FFF769FD0023184680BD33
:103BA000DC780008B8070020000C0240F07800081C
:103BB00004790008187900082C7900084079000879
:103BC0005479000800180240687900087C790008E0
:103BD0009079000898790008A0790008A879000871
:103BE0000004024080B489B000AF78600023BB615C
:103BF00000237B610023FB6102233B610023FB6008
:103C00000223BB60484B9B6803F00C03BB61BB699C
:103C1000042B07D0082B09D0002B3FD17B68434AE7
:103C20001A603FE07B68424A1A603BE03E4B5B68AB
:103C300003F480039B0DFB603B4B5B6803F03F0389
:103C4000BB60FB68002B0DD0394ABB68B2FBF3F2B6
:103C5000354B596847F6C0730B409B0903FB02F3D1
:103C6000FB610CE0314ABB68B2FBF3F22E4B5968A2
:103C700047F6C0730B409B0903FB02F3FB612A4B21
:103C80005B6803F440331B0C01335B003B61FA6952
:103C90003B69B2FBF3F27B681A6003E07B68234A5E
:103CA0001A6000BF204B9B6803F0F003BB61BB6947
:103CB0001B09BB611F4ABB6913441B78DBB27B61E4
:103CC0007B681A687B69DA407B685A60164B9B6890
:103CD00003F4E053BB61BB699B0ABB61154ABB6936
:103CE00013441B78DBB27B617B685A687B69DA40DE
:103CF0007B689A600C4B9B6803F46043BB61BB69B3
:103D00005B0BBB610B4ABB6913441B78DBB27B6165
:103D10007B685A687B69DA407B68DA6000BF2437C9
:103D2000BD4680BC704700BF003802400024F4004C
:103D300000127A004C00002080B483B000AF78609D
:103D40000B46FB70FB78002B06D00949084B1A6B19
:103D50007B6813430B6306E00549054B1A6B7B68D0
:103D6000DB4313400B6300BF0C37BD4680BC70477C
:103D70000038024080B483B000AF78600B46FB701F
:103D8000FB78002B06D00949084B5A6B7B6813431C
:103D90004B6306E00549054B5A6B7B68DB431340D8
:103DA0004B6300BF0C37BD4680BC704700380240F3
:103DB00080B483B000AF78600B46FB70FB78002BBB
:103DC00006D00949084B1A6C7B6813430B6406E064
:103DD0000549054B1A6C7B68DB4313400B6400BF3D
:103DE0000C37BD4680BC70470038024080B483B0B9
:103DF00000AF78600B46FB70FB78002B06D00949BA
:103E0000084B5A6C7B6813434B6406E00549054B2D
:103E10005A6C7B68DB4313404B6400BF0C37BD46D4
:103E200080BC70470038024080B483B000AF786037
:103E30000B46FB70FB78002B06D00949084B1A6A29
:103E40007B6813430B6206E00549054B1A6A7B68E1
:103E5000DB4313400B6200BF0C37BD4680BC70478C
:103E60000038024080B400AF044A044B5B6923F081
:103E70000C03536100BFBD4680BC7047001C02406C
:103E800080B582B000AF1C491C4802F02DFE0346ED
:103E9000002B09D1FFF7E6FF194A194B5B6943F084
:103EA0000C035361012323E01649144802F01CFE61
:103EB0000346002B19D10023FB71FFF7D3FF1248F3
:103EC000FEF734FBFEF744F90346FB71FB79012B47
:103ED000F8D10E48FEF72AFB4FF47A70FDF704FB89
:103EE0000A48FEF723FB022302E0FFF7BBFF002393
:103EF00018460837BD4680BDB0790008B8070020D5
:103F0000001C0240BC790008C8790008D479000878
:103F100080B483B000AF03463960FB713B68122266
:103F20001A80034B18460C37BD4680BC704700BF53
:103F30007800002080B483B000AF03463960FB7185
:103F40003B6804221A80034B18460C37BD4680BCE0
:103F5000704700BF9800002080B582B000AF0346D4
:103F60003960FB713A680449044801F0E1F8024BFA
:103F700018460837BD4680BDC80F0020E07900080C
:103F800080B582B000AF03463960FB713A680449DE
:103F9000044801F0CDF8024B18460837BD4680BDF5
:103FA000C80F0020E079000880B582B000AF03465A
:103FB0003960FB713A680449044801F0B9F8024BD2
:103FC00018460837BD4680BDC80F0020E8790008B4
:103FD00080B582B000AF03463960FB713A6804498E
:103FE000044801F0A5F8024B18460837BD4680BDCD
:103FF000C80F0020F879000880B582B000AF0346F2
:104000003960FB713A680449044801F091F8024BA9
:1040100018460837BD4680BDC80F0020047A000846
:1040200080B487B000AF7860396000237B610023E3
:104030003B610023FB6000237B6176E001227B690A
:1040400002FA03F33B613B681A683B691340FB606B
:10405000FA683B699A4265D17B681A687B695B00A4
:10406000032101FA03F3DB431A407B681A607B6883
:104070001A683B681B7919467B695B0001FA03F3F8
:104080001A437B681A603B681B79012B03D03B689D
:104090001B79022B2ED17B689A687B695B00032118
:1040A00001FA03F3DB431A407B689A607B689A68E5
:1040B0003B685B7919467B695B0001FA03F31A439D
:1040C0007B689A607B685A687B699BB219460123BA
:1040D0008B40DB431A407B685A607B685B683A68B8
:1040E000927911467A6992B201FA02F292B21A43B7
:1040F0007B685A607B68DA687B699BB25B0003214E
:1041000001FA03F3DB431A407B68DA607B68DA6804
:104110003B68DB7919467B695B0001FA03F31A43BC
:104120007B68DA607B6901337B617B690F2B85D902
:1041300000BF1C37BD4680BC704700BF80B485B04F
:1041400000AF78600B467B8013467B700023FB60DA
:104150000023BB607A787B8803F007039B0002FA98
:1041600003F3FB607B88DB089BB218467B88DB0887
:104170009BB21A467B68083253F822207B8803F0F2
:1041800007039B000F2101FA03F3DB4302EA03015B
:104190007B6800F1080243F822107B88DB089BB2A1
:1041A0001A467B68083253F82220FB681343BB6031
:1041B0007B88DB089BB21A467B680832B96843F8F3
:1041C000221000BF1437BD4680BC704780B400AFDA
:1041D000064B00221A60064B00221A60054B002293
:1041E0001A7000231846BD4680BC7047C40F0020DB
:1041F000C00F0020BC0D002080B400AF0023184683
:10420000BD4680BC704700BF80B485B000AFF86089
:10421000B9607A60FB68232B00F2988001A252F803
:1042200023F000BF4D4300084D4300084D430008F4
:104230004D4300084D4300084D4300084D4300081E
:104240004D4300084D4300084D4300084D4300080E
:104250004D4300084D4300084D4300084D430008FE
:104260004D4300084D4300084D4300084D430008EE
:104270004D4300084D4300084D4300084D430008DE
:104280004D4300084D4300084D4300084D430008CE
:104290004D4300084D4300084D4300084D430008BE
:1042A0004D430008B5420008F94200084D4300089C
:1042B0004D430008BB681B781A46BB6801331B7866
:1042C0001B021A43BB6802331B781B041A43BB68EA
:1042D00003331B781B0613431A46204B1A60BB6836
:1042E0001A791E4B1A71BB685A791C4B5A71BB68FC
:1042F0009A791A4B9A712AE0184B1B68DAB2BB689C
:104300001A70BB680133154A1268120AD2B21A70C9
:10431000BB680233114A1268120CD2B21A70BB6821
:1043200003330E4A1268120ED2B21A70BB680433FD
:104330000A4A12791A70BB680533084A52791A7012
:10434000BB680633054A92791A7000E000BF00236B
:1043500018461437BD4680BC704700BF9C00002043
:1043600080B485B000AF786039600023FB6018E04E
:10437000114B1B687968FA680A4411780F4AD154C6
:104380000D4B1B6801330C4A1360FB680133FB6063
:10439000094B1B6840F2FE72934202D9064B002281
:1043A0001A60FA683B689A42E2D300231846143731
:1043B000BD4680BC704700BFA801002088100020C7
:1043C00080B487B000AF7860396000237B6125E05E
:1043D000174B1B680133C3F308033B61144A3B6965
:1043E0001360144B1B683A699A4201D102231AE008
:1043F0007A687B6913441B78FB73FB7B0D2B05D11B
:104400000D4B1B780133DAB20B4B1A700B4A3B6928
:104410001344FA7B1A707B6901337B617A693B68CC
:104420009A42D5D3002318461C37BD4680BC70473E
:10443000C40F0020C00F0020BC0D0020C00D0020C4
:1044400080B487B000AF78600023FB82224B1B78DA
:10445000002B01D100233AE0204B1A68204B1B6847
:104460009A4204D11C4B00221A7000232FE0002333
:10447000FB821B4B1B680133C3F308033B61184AE3
:104480003B691360174A3B6913441B78FB73FB7B42
:104490001F2B07D9FB8A7A681344FA7B1A70FB8AB0
:1044A0000133FB820D4B1A680D4B1B689A4202D0F8
:1044B000FB7B0D2BDDD1FB8A7A68134400221A7036
:1044C000054B1B78013BDAB2034B1A70FB8A184686
:1044D0001C37BD4680BC7047BC0D0020C40F0020B7
:1044E000C00F0020C00D002080B582B000AF034691
:1044F000FB71FB1D01211846FFF732FF00BF083793
:10450000BD4680BD80B582B000AF786039603B6841
:1045100019467868FFF724FF00BF0837BD4680BD05
:1045200080B500AF124A124B1B6843F001031360C1
:104530000F4B00229A600E4A0D4B1B6823F08473C8
:1045400023F4803313600A4B0A4A5A60084A084B26
:104550001B6823F480231360054B0022DA6000F00F
:1045600089F8054B4FF000629A6000BF80BD00BF24
:10457000003802401030002400ED00E080B487B025
:1045800000AF00233B6100237B610223FB6000231B
:10459000BB6002237B60324B9B6803F00C033B61E2
:1045A0003B69042B07D0082B09D0002B3FD12D4BA2
:1045B0002D4A1A603FE02B4B2C4A1A603BE0284BF7
:1045C0005B6803F480039B0DBB60254B5B6803F0C5
:1045D0003F037B60BB68002B0DD0244A7B68B2FB95
:1045E000F3F21F4B596847F6C0730B409B0903FB5E
:1045F00002F37B610CE01C4A7B68B2FBF3F2184BC0
:10460000596847F6C0730B409B0903FB02F37B61BB
:10461000134B5B6803F440331B0C01335B00FB60FE
:104620007A69FB68B2FBF3F30E4A136003E00D4BAB
:104630000D4A1A6000BF0A4B9B6803F0F0031B0988
:104640000B4AD35CDBB23B61064B1A683B6922FA2A
:1046500003F3044A136000BF1C37BD4680BC70479B
:1046600000380240B80000200024F40000127A0054
:10467000BC00002080B483B000AF00237B60002327
:104680003B60354A344B1B6843F480331360324B34
:104690001B6803F400333B607B6801337B603B683D
:1046A000002B03D17B68B3F5A06FF0D12A4B1B68B8
:1046B00003F40033002B02D001233B6001E0002310
:1046C0003B603B68012B42D1234A234B1B6C43F0D8
:1046D00080531364214A214B1B6843F480431360C9
:1046E0001D4A1D4B9B6893601B4A1B4B9B6843F400
:1046F00000439360184A184B9B6843F4A05393609F
:10470000154B174A5A60144A134B1B6843F08073C9
:10471000136000BF104B1B6803F00073002BF9D02F
:10472000104B40F205621A600B4A0B4B9B6823F05A
:1047300003039360084A084B9B6843F002039360AD
:1047400000BF054B9B6803F00C03082BF9D100BF99
:104750000C37BD4680BC70470038024000700040F6
:10476000042A4007003C024080B584B000AF786066
:1047700001210120FFF7E0FA4FF4D853BB60032377
:104780007B7302233B730023BB730023FB7307F18E
:10479000080319461B48FFF743FC0A220821194861
:1047A000FFF7CCFC0A2209211648FFF7C7FC0A22B2
:1047B0000B211448FFF7C2FC0A220C211148FFF715
:1047C000BDFC4FF48063BB600123BB730123FB730B
:1047D00003237B7307F1080319460A48FFF720FCFF
:1047E0000A220A210748FFF7A9FC01218020FFF7D0
:1047F000C1FA01214FF08050FFF716FB00BF1037C0
:10480000BD4680BD0000024080B584B000AF786036
:104810004FF4C06001F0C6FC43233B7301237B735C
:104820000323BB730123FB7307F10C03184601F04C
:10483000CBFC00BF1037BD4680BD00BF80B485B043
:1048400000AF78600023FB607A6813461B019B1A57
:10485000DB001A460A4BA3FB0213D21A5208134478
:104860009B08BB60FB680133FB60FA68BB689A4237
:1048700000D8F7E700BF1437BD4680BC704700BFC3
:104880002549922480B582B000AF78607B684FF4F0
:104890007A7202FB03F31846FFF7D0FF00BF083718
:1048A000BD4680BD80B500AF024800F09DFC00BF52
:1048B00080BD00BFC801002080B584B000AF786023
:1048C00039600023FB733B685B78092B39D801A260
:1048D00052F823F0254900083949000843490008E7
:1048E0002F4900084349000807490008FD4800080F
:1048F000434900081B4900081149000839687868D5
:1049000000F036F922E03968786800F005FA1DE019
:104910003968786800F03EFA18E03968786800F085
:10492000B3FA13E03968786800F0DEFA0EE039680F
:10493000786800F001FB09E03968786800F064FBF2
:1049400004E03968786800F0CFFB00BFFB7B1846B5
:104950001037BD4680BD00BF80B584B000AF786021
:1049600039600023FB737B6893F81231032B1BD152
:104970003B689B88DBB2012B11D87B68D3F8E0350C
:104980009B683968786898473B68DB88002B10D1B2
:10499000FB7B002B0DD1786801F004FF09E039683A
:1049A000786800F0A1FB04E03968786800F09CFBAF
:1049B00000E000BFFB7B18461037BD4680BD00BF3E
:1049C00080B584B000AF786039600023FB733B682A
:1049D0009B88BB733B685B78012B39D0032B02D0DB
:1049E000002B6CD0BDE07B6893F81231022B02D013
:1049F000032B0CD025E0BB7B002B27D0BB7B802B6F
:104A000024D0BB7B1946786801F0CEFD1EE03B68E0
:104A10005B88002B0AD1BB7B002B07D0BB7B802B94
:104A200004D0BB7B1946786801F0BEFD7B68D3F8E3
:104A3000E0359B68396878689847786801F0B2FE7D
:104A400005E03968786800F04FFB00E000BF88E0BF
:104A50007B6893F81231022B02D0032B0CD025E097
:104A6000BB7B002B27D0BB7B802B24D0BB7B194684
:104A7000786801F099FD1EE03B685B88002B1CD133
:104A8000BB7B002B0ED0BB7B802B0BD0BB7B194696
:104A9000786801F0C5FD7B68D3F8E0359B6839681C
:104AA00078689847786801F07DFE06E03968786894
:104AB00000F01AFB02E000BF53E000BF51E07B684A
:104AC00093F81231022B02D0032B0CD042E0BB7BB7
:104AD000002B44D0BB7B802B41D0BB7B1946786830
:104AE00001F062FD3BE097F90E30002B15DABB7B3D
:104AF00003F07F02796813469B001344DB000B44EC
:104B000003F58D731B78002B03D0184B01221A601C
:104B10001AE0164B00221A6016E097F90E30002BAF
:104B200012DBBA7B796813469B001344DB000B440D
:104B300003F272331B78002B03D00C4B01221A6056
:104B400002E00A4B00221A6002220849786801F04C
:104B5000C1FD05E03968786800F0C6FA00E000BFE2
:104B600000BFFB7B18461037BD4680BD9401002076
:104B700080B584B000AF786039603B685B881B0A01
:104B80009BB2013B062B00F2A98001A252F823F050
:104B9000AD4B0008DD4B0008054C0008DD4C00085B
:104BA000DD4C0008C94C0008D34C00087B68D3F8E2
:104BB000E8351B687A68927807F10A011046984731
:104BC000F8603B68DB88402B05D07B6893F8123196
:104BD000012B40F0888008237B8184E07B68D3F838
:104BE000E0359B6A7A68927807F10A011046984787
:104BF000F860FB68013302221A707B68FA68C3F818
:104C0000EC2571E03B685B88DBB2052B56D801A22E
:104C100052F823F02D4C0008454C00085D4C00086C
:104C2000754C00088D4C0008A54C00087B68D3F833
:104C3000E8355B687A68927807F10A011046984770
:104C4000F86040E07B68D3F8E8359B687A68927832
:104C500007F10A0110469847F86034E07B68D3F802
:104C6000E835DB687A68927807F10A0110469847C0
:104C7000F86028E07B68D3F8E8351B697A68927899
:104C800007F10A0110469847F8601CE07B68D3F8EA
:104C9000E8355B697A68927807F10A01104698470F
:104CA000F86010E07B68D3F8E8359B697A68927801
:104CB00007F10A0110469847F86004E039687868FF
:104CC00000F012FA25E00FE03968786800F00CFA7D
:104CD0001FE03968786800F007FA1AE039687868E8
:104CE00000F002FA15E000BF7B89002B11D03B6871
:104CF000DB88002B0DD03B68DA887B89934228BF84
:104D000013469BB27B817B891A46F968786801F06B
:104D1000E1FC1037BD4680BD80B584B000AF78603F
:104D200039603B689B88002B2CD13B68DB88002BCB
:104D300028D13B685B88DBB203F07F03FB737B68A1
:104D400093F81231032B04D13968786800F0CCF95C
:104D50001CE07B68FA7B83F81321FB7B194678689B
:104D600001F09AFC786801F01DFDFB7B002B04D05C
:104D70007B68022283F8122108E07B68012283F815
:104D8000122103E03968786800F0AEF900BF1037EF
:104D9000BD4680BD80B582B000AF786039603B68A9
:104DA0005B88DAB2374B1A70364B1B78012B04D96B
:104DB0003968786800F098F95FE07B6893F8123101
:104DC000022B02D0032B1BD052E02E4B1B78002B62
:104DD00012D02C4B1A787B6883F810217B68032251
:104DE00083F81221274B1B7819467868FDF79CFF42
:104DF000786801F0D7FC40E0786801F0D3FC3CE033
:104E0000204B1B78002B12D17B68022283F81221E1
:104E10001C4B1A787B6883F810211A4B1B781946B3
:104E20007868FDF799FF786801F0BCFC25E07B68A5
:104E300093F81021134B1B789A4215D07B6893F896
:104E4000103119467868FDF787FF0E4B1A787B689A
:104E500083F810210B4B1B7819467868FDF764FF27
:104E6000786801F09FFC08E0786801F09BFC04E0A2
:104E70003968786800F038F900BF00BF0837BD46D0
:104E800080BD00BFA001002080B582B000AF786077
:104E900039603B68DB88012B04D03968786800F002
:104EA00023F91BE07B6893F81231022B02D0032B0D
:104EB00006D00EE001220B49786801F00BFC0DE0F2
:104EC0007B6803F5887301221946786801F002FCBB
:104ED00004E03968786800F007F900BF00BF0837C0
:104EE000BD4680BD9801002080B582B000AF7860DB
:104EF00039607B6893F81231023B012B11D87B6833
:104F0000D3F81431002B03D00A4B03221A6002E0BD
:104F1000084B01221A6001220649786801F0DAFB89
:104F200004E03968786800F0DFF800BF00BF083798
:104F3000BD4680BD9C01002080B584B000AF786084
:104F400039600023FB733B685B88012B0ED17B68C3
:104F50000122C3F814217B68D3F8E0359B683968D7
:104F600078689847786801F01DFC48E03B685B88EA
:104F7000022B44D13B689B88DBB2002B3FD17B687E
:104F80001B695B68BB603B689B881B0A9BB2FB7319
:104F9000FB7B013B042B2BD801A252F823F000BF6E
:104FA000B54F0008C14F0008CD4F0008D94F000889
:104FB000E54F00083B7A012262F306133B7217E0CB
:104FC0003B7A022262F306133B7211E03B7A032222
:104FD00062F306133B720BE03B7A042262F3061382
:104FE0003B7205E03B7A052262F306133B7200BF79
:104FF0007B681B69BA685A60786801F0D3FB00BF10
:105000001037BD4680BD00BF80B582B000AF78606C
:1050100039607B6893F81231023B012B12D83B6850
:105020005B88012B13D17B680022C3F814217B68B5
:10503000D3F8E0359B68396878689847786801F05C
:10504000B1FB04E03968786800F04EF800E000BF7A
:1050500000BF0837BD4680BD80B483B000AF786024
:1050600039607B6893F8C8253B681A707B6893F8B1
:10507000C9253B685A707B6893F8CA359AB27B6839
:1050800093F8CB359BB21B029BB213449AB23B6898
:105090005A807B6893F8CC359AB27B6893F8CD350B
:1050A0009BB21B029BB213449AB23B689A807B6806
:1050B00093F8CE359AB27B6893F8CF359BB21B023A
:1050C0009BB213449AB23B68DA803B68DB881A468D
:1050D0007B68C3F83C217B68012283F8112100BF63
:1050E0000C37BD4680BC704780B582B000AF786099
:1050F00039603B681B785BB2002B04DA802178684A
:1051000001F052FA0CE03B68DB88002B04D18021CF
:10511000786801F049FA03E00021786801F044FA68
:105120007868FCF749F900BF0837BD4680BD00BF6D
:1051300080B586B000AFF860B9607A600023FB7577
:10514000FB68002B33D0F86800F036F803460133D3
:105150009BB25B009AB27B681A80FB7D5A1CFA7581
:105160001A46BB6813447A681288D2B21A70FB7D63
:105170005A1CFA751A46BB68134403221A7012E0CF
:10518000FB7D5A1CFA751A46BB681A44FB68591C09
:10519000F9601B781370FB7D5A1CFA751A46BB68C0
:1051A000134400221A70FB681B78002BE8D100BF63
:1051B0001837BD4680BD00BF80B485B000AF7860B1
:1051C0000023FB7305E0FB7B0133FB737B6801333A
:1051D0007B607B681B78002BF5D1FB7B184614376E
:1051E000BD4680BC704700BF80B586B000AF786018
:1051F00000237B617868FBF719FB0346002B00F066
:10520000B6807868FBF724FB03463B613B69002BC3
:1052100001D10023ACE0BB7C03F00803DBB2002B20
:1052200006D0786800F064FA02467B6913437B611C
:10523000BB7C03F00403DBB2002B06D0786800F0DF
:1052400061F902467B6913437B613B7C03F00203F7
:10525000DBB2002B09D00023FB603B7B43F0020351
:105260003B737B68DB68FA685A61FB7C23F07F0341
:10527000DBB2002B06D0786800F0B6F802467B69F6
:1052800013437B617B7C03F00803DBB2002B06D069
:10529000786800F0E9F802467B6913437B613B7C48
:1052A00003F00803DBB2002B06D0786800F0DCFACC
:1052B00002467B6913437B613B7C03F01003DBB246
:1052C000002B06D0786800F0E9FA02467B691343A8
:1052D0007B617B7C03F01003DBB2002B06D0786887
:1052E00000F0E6FB02467B6913437B617B7C03F0A5
:1052F0002003DBB2002B06D0786800F075FC024674
:105300007B6913437B61BB7C03F01003DBB2002B92
:1053100006D0786800F0A4FC02467B6913437B61E9
:10532000BB7C03F02003DBB2002B06D0786800F0D2
:10533000B1FC02467B6913437B61FB7C03F04003B5
:10534000DBB2002B06D0786800F016F802467B69C5
:1053500013437B613B7C03F00403DBB2002B06D0DC
:10536000786800F023F802467B6913437B617B6910
:1053700018461837BD4680BD80B584B000AF786050
:10538000094B1B685B6A786898470023FB60FB7BCE
:1053900043F04003FB737B68DB68FA685A610123C2
:1053A00018461037BD4680BD4800002080B584B047
:1053B00000AF78607B68DB685B68FB603B7B03F079
:1053C0000403DBB2002B04D0064B1B689B6A786891
:1053D00098477B68DB68FA685A60012318461037E3
:1053E000BD4680BD4800002080B586B000AF786023
:1053F0007B689B7A002B11D07B6803F586731B6852
:10540000FB603B7B6FF341033B733B7B6FF300031C
:105410003B737B68D3F80C31FA681A6000233B6158
:105420003B7C43F001033B747B681B697A6812691B
:1054300051683A69D2430A405A600A4B1B689B691B
:105440007868984700237B61FB7D43F08003FB7500
:105450007B68DB687A695A61012318461837BD46B4
:1054600080BD00BF4800002080B586B000AF7860E6
:10547000224B1B685B69786898477B681B699B684F
:10548000FB6000237B617B7D43F008037B757B68B9
:10549000DB687A695A617B689B7A002B29D03B7B59
:1054A00003F00103DBB2002B23D000233B613B7CE4
:1054B00043F001033B747B68D3F80C317A68D2F86F
:1054C0000C2111683A690A431A603B7C43F00203DD
:1054D0003B747B68D3F80C317A68D2F80C211168E0
:1054E0003A690A431A60064A054B1B6943F00603F2
:1054F0001361012318461837BD4680BD48000020BF
:1055000000ED00E080B586B000AF786000233B611D
:105510000023BB607868FBF739FF7861DCE07B69CA
:1055200003F00103002B00F0D1803B69DBB2194688
:10553000786800F0C9FB0346BB603B7A03F00103C7
:10554000DBB2002B32D001223B6902FA03F3FB608D
:105550007B681B697A681269516BFA68D2430A400A
:105560005A630023BB603B7A43F001033B727A68C5
:105570003B6904339B0013449B68BA689A605B4B99
:105580001B685B683A69D2B21146786898477B68B5
:10559000DB78012B0AD13B69002B07D17B6893F89C
:1055A0001131042B02D17868FBF706FF3B7A03F038
:1055B0000403DBB2002B0DD00023BB603B7A43F029
:1055C00004033B727A683B6904339B0013449B6875
:1055D000BA689A603B7A03F00803DBB2002B0DD067
:1055E0000023BB603B7A43F008033B727A683B6957
:1055F00004339B0013449B68BA689A603B7A03F0BB
:105600001003DBB2002B0DD00023BB603B7A43F0CC
:1056100010033B727A683B6904339B0013449B6818
:10562000BA689A603B7A03F02003DBB2002B0DD0FE
:105630000023BB603B7A43F020033B727A683B69EE
:1056400004339B0013449B68BA689A603B7A03F06A
:105650004003DBB2002B0DD00023BB603B7A43F04C
:1056600040033B727A683B6904339B0013449B6898
:10567000BA689A603B7A03F00203DBB2002B0DD0CC
:105680000023BB603B7A43F002033B727A683B69BC
:1056900004339B0013449B68BA689A603B7A23F0FA
:1056A0007F03DBB2002B11D03969786800F078F9FC
:1056B0000023BB603B7A43F080033B727A683B690E
:1056C00004339B0013449B68BA689A603B690133BA
:1056D0003B617B695B087B617B69002B7FF41FAFBB
:1056E000012318461837BD4680BD00BF4800002082
:1056F00080B586B000AF786000233B610023FB607B
:105700007868FBF713FE7861A3E07B6903F001037F
:10571000002B00F098803B69DBB219467868FBF7F4
:105720001BFE0346FB603B7B03F00103DBB2002B57
:1057300048D00023FB603B7B43F001033B737A6856
:105740003B6914339B0013445B68FA689A607B687A
:10575000DB78012B1FD17A683B6914339B0013441B
:105760005B681B69BB6079683A6913469B00134408
:10577000DB000B4403F55E731B68BA68C2F31202C8
:10578000991A78683A6913469B001344DB00034476
:1057900003F562731960334B1B681B683A69D2B218
:1057A0001146786898477B68DB78012B0AD13B6902
:1057B000002B07D17B6893F81131052B02D1786853
:1057C000FBF7FAFD3B7B03F00203DBB2002B0DD0AD
:1057D0000023FB603B7B43F002033B737A683B6929
:1057E00014339B0013445B68FA689A603B7B03F0B8
:1057F0000403DBB2002B0DD00023FB603B7B43F0A6
:1058000004033B737A683B6914339B0013445B6861
:10581000FA689A603B7B03F00803DBB2002B12D0DE
:10582000104B1B689B68786898470023FB603B7BA4
:1058300043F008033B737A683B6914339B001344BD
:105840005B68FA689A603B6901333B617B695B087E
:105850007B617B69002B7FF458AF01231846183712
:10586000BD4680BD4800002080B584B000AF7860A0
:10587000094B1B68DB68786898470023FB603B7B1B
:1058800043F008033B737B68DB68FA685A610123C5
:1058900018461037BD4680BD4800002080B586B050
:1058A00000AF786000233B613B7C43F010033B7406
:1058B0007B68DB687A68D26891693A69D2430A40AA
:1058C0009A617B68DB681B6AFB603B7BC3F3030365
:1058D000DBB21A4613469B001344DB0003F55C73EE
:1058E0007A6813447B61BB7BC3F34303DBB2013BA8
:1058F000052B45D801A252F823F000BF81590008BA
:10590000155900088159000881590008815900087B
:105910005D590008BA8947F6F07313409BB2002B1B
:1059200030D07B69D968BB89C3F30A139BB21A468E
:105930007868FAF7CDFC7B69DB68BA89C2F30A1292
:1059400092B21A447B69DA607B699B69BA89C2F3B7
:105950000A1292B21A447B699A6113E07B6803F5DC
:10596000B963082219467868FAF7B2FC7B699B692B
:10597000BA89C2F30A1292B21A447B699A6102E0B0
:1059800000BF00E000BF7B68DB687A68D26891697D
:105990003A690A439A61012318461837BD4680BD0B
:1059A00080B588B000AF786039600023FB610023C8
:1059B000FB603A6813469B001344DB0003F58C73CD
:1059C0007A6813447B617B695A697B699B69D31A46
:1059D000FB617B699A68FB699A4202D27B699B688A
:1059E000FB61FB6903339B08BB617A683B68043346
:1059F0009B0013449B689B69FB6044E07B695A6988
:105A00007B699B69D31AFB617B699A68FB699A423F
:105A100002D27B699B68FB61FB6903339B08BB6116
:105A20007B69D9683B68DAB2FB699BB27868FAF7A0
:105A300015FC7B69DA68FB691A447B69DA607B696B
:105A40009A69FB691A447B699A617B699A697B69E7
:105A50005B699A420FD37B691B781A4601239340F6
:105A60003B617B681B697A681269516B3A69D24362
:105A70000A405A6316E07A683B6804339B0013447B
:105A80009B689B69FB60BB891A46BB699A4209D92E
:105A90007B699A697B695B699A4203D27B695B691E
:105AA000002BABD1012318462037BD4680BD00BF77
:105AB00080B58AB000AF786000233B6100233B6271
:105AC0000023FB610023BB6100237B610023FB609B
:105AD0003B7C43F001033B747B681B697A68126965
